:020000040800F2
:10000000600F0020110A00082103000823030008E4
:10001000270300082B0300082F030008000000003E
:100020000000000000000000000000003303000892
:1000300035030008000000003703000839030008FA
:100040002B0A00082B0A00082B0A00082B0A0008BC
:100050002B0A00082B0A00082B0A00082B0A0008AC
:100060002B0A00082B0A00082B0A00082B0A00089C
:100070002B0A00082B0A00082B0A00082B0A00088C
:100080002B0A00082B0A00082B0A00082B0A00087C
:100090002B0A00082B0A00082B0A00082B0A00086C
:1000A0002B0A00082B0A00082B0A00082B0A00085C
:1000B0002B0A00082B0A00082B0A00082B0A00084C
:1000C0002B0A00082B0A00082B0A00082B0A00083C
:1000D0002B0A00082B0A0008870900082B0A0008D1
:1000E0002B0A00082B0A00082B0A00082B0A00081C
:1000F0002B0A00082B0A00082B0A00082B0A00080C
:100100002B0A00082B0A00082B0A00082B0A0008FB
:100110002B0A00082B0A00082B0A00082B0A0008EB
:100120002B0A00082B0A00082B0A00082B0A0008DB
:1001300000F002F800F03FF80AA090E8000C8244BA
:100140008344AAF10107DA4501D100F034F8AFF297
:10015000090EBAE80F0013F0010F18BFFB1A43F0A5
:1001600001031847981F0000B81F0000103A24BF71
:1001700078C878C1FAD8520724BF30C830C144BF0C
:1001800004680C607047000000230024002500264E
:10019000103A28BF78C1FBD8520728BF30C148BFEA
:1001A0000B607047632901F03287002070471FB54C
:1001B0001FBD10B510BD01F065FF1146FFF7F7FF39
:1001C00000F008F801F083FF03B4FFF7F2FF03BC6F
:1001D00000F07EFB86B0002600254FF4A06001F001
:1001E000BBF900F00BFB4FF4E13000F07FFB00F0B7
:1001F00095F900F0B9F91FA001F092FE38E0002057
:1002000000F0EEF90446032C0AD128A001F088FE84
:1002100011222D492D4800F076FA2DA001F080FE24
:10022000012C15D130A001F07BFE112201A9274835
:1002300000F058FA32A001F073FE002506E001A894
:10024000415D35A001F06CFE681C85B2112DF6D31E
:10025000701C86B20A2000F00EFB142E08D12F4825
:10026000006808B9012000E000202C490860002641
:10027000C5E700000D0A203E3E464C41534820454C
:100280004550524F4D2054455354202E2E2E2E2E85
:1002900020574B5F55503A5772697465204B45594A
:1002A000303A526561640D0A0000000053746172B7
:1002B0007420577269746520464C4153482E2E2E87
:1002C0002E2E2E2E00000000E8200008000002085C
:1002D000464C4153482057726974652046696E69DF
:1002E00073686564210D0A0053746172742052654D
:1002F000616420464C4153482E2E2E2E2E2E2E0069
:1003000054686520446174612052656164656420AD
:1003100049733A2020000000256300009401214227
:10032000704700BFFEE700BFFEE700BFFEE700BF6B
:10033000FEE7704770477047704700000CB500201B
:10034000019000906C48006840F480306A49086071
:1003500000BF6948006800F4003000900198401C1C
:100360000190009818B90198B0F5A06FF1D16248DA
:10037000006800F4003010B10120009001E000207E
:1003800000900098012843D15C48006840F01000BC
:100390005A4908600846006820F0030008600846D3
:1003A000006840F0020008605348406852494860C5
:1003B0000846406848600846406840F480604860ED
:1003C0000846406820F47C1048600846406840F4C5
:1003D000E81048600846006840F08070086000BF80
:1003E0004548006800F000700028F9D04248406895
:1003F00020F00300404948600846406840F0020091
:10040000486000BF3C48406800F00C000828F9D163
:100410000CBD10B5FFF792FF10BD10B5364800684F
:1004200040F00100344908600846406834490840FB
:100430003149486008460068324908402E49086042
:100440000846006820F4802008600846406820F4D0
:10045000FE0048604FF41F008860FFF7DAFF4FF09E
:1004600000602949086010BD10B50021002000225D
:10047000214B5B6803F00C0121B1042906D0082947
:1004800028D107E0214B224C236027E01F4B204C52
:10049000236023E0184B5B6803F47010164B5B6815
:1004A00003F48032022303EB904022B9194B4343FB
:1004B000174C23600DE0104B5B6803F4003323B14D
:1004C000144B4343124C236003E0104B4343104C46
:1004D000236003E00D4B0E4C236000BF00BF064BB2
:1004E0005B68C3F303130C4CE15C094B1B68CB4006
:1004F000074C236010BD00000010024000200240A5
:100500000000FFF8FFFFF6FE08ED00E000127A00A1
:100510000000002000093D000400002008B5012172
:10052000242000F0B1FD2020ADF8000010208DF84F
:10053000030003208DF802006946094800F0E8FA3C
:100540002021074800F091FB0420ADF80000694627
:10055000044800F0DDFA0421024800F086FB08BDE3
:10056000000801400014014008B50121042000F0FA
:100570008BFD01214B4800F09CFB0120ADF80000F1
:1005800028208DF803006946474800F0C1FA4FF46F
:100590008060ADF8000048208DF8030069464248AD
:1005A00000F0B6FA0121082000F06EFD0120ADF840
:1005B000000048208DF8030069463C4800F0A8FA86
:1005C0000121102000F060FD4FF40050ADF8000054
:1005D00048208DF803006946354800F099FA08BDB7
:1005E00010B5044614B10120324908703148007832
:1005F00000283BD001212D4800F01DFB88B14FF4AD
:100600008061294800F017FB58B14FF40051284889
:1006100000F011FB28B10121234800F00CFB012858
:1006200024D11E2000F027F9002022490870012162
:100630001E4800F000FB08B9012010BD4FF4806196
:10064000194800F0F8FA08B90220F6E74FF4005113
:10065000174800F0F0FA08B90420EEE7012112482B
:1006600000F0E9FA01281BD10320E6E701210F4839
:1006700000F0E1FA012813D181020B4800F0DBFA07
:1006800001280DD141030A4800F0D5FA012807D10D
:100690000121054800F0CFFA10B901200549087082
:1006A0000020CAE70002300000080140000C0140B1
:1006B00000100140140000200146088870472DE911
:1006C000F04105460E461746002407E036F81410A0
:1006D000284601F03BFAAD1C601C84B2BC42F5DB3D
:1006E000BDE8F08130B503460C461546002207E010
:1006F0001846FFF7E1FF24F812009B1C501C82B241
:10070000AA42F5DB30BD2DE9F05F80468A461746E8
:10071000B8F1006F02D33748804501D3BDE8F09FA0
:1007200000F0A7FFA8F1006B4FEADB25CBF34909E6
:10073000C9F58064A74200DC3C464DE04FF0006103
:1007400001EBC5204A142C49FFF7CCFF00260BE033
:1007500009EB0600284931F810004FF6FF71884276
:1007600000D003E0701C86B2A642F1DB00BFA642B7
:100770001BDA4FF0006101EBC52001F000F8002604
:1007800008E03AF8160006EB09011B4A22F81100AE
:10079000701C86B2A642F4DB4FF0006101EBC5206D
:1007A0004A141549FFF78BFF04E0224651464046A4
:1007B000FFF785FFA74200D10FE06D1C4FF0000945
:1007C0000AEB440AA044381B87B2B7F5806F02DDFC
:1007D0004FF4806400E03C46B0E700BF00F05FFFEC
:1007E00000BF9BE713B50446012201A92046FFF78D
:1007F0008AFF1CBD000004083800002010B56FF00F
:10080000040000F0F8FE2E4800682E49B0FBF1F01D
:100810002D4908700846007800EB4001C1EBC0107C
:100820004FF6FF7101EAC0002849088010BD01465B
:10083000254A12784A434FF0E0235A6100229A6118
:100840001A46126942F001021A6100BF4FF0E0221D
:10085000106900F001021AB100F48032002AF5D0CC
:100860004FF0E022126922F001024FF0E0231A61FA
:1008700000229A6170470146144A12884A434FF099
:10088000E0235A6100229A611A46126942F001027D
:100890001A6100BF4FF0E022106900F001021AB1A6
:1008A00000F48032002AF5D04FF0E022126922F0E5
:1008B00001024FF0E0231A6100229A6170470000A4
:1008C0000000002000127A0016000020180000200E
:1008D00000BF704700BF4A4A128802F04002002A57
:1008E000F9D0C2B2464B1B1D1A80704710B586B0B6
:1008F00004460121042000F0C7FB0121480400F058
:10090000D0FB0420ADF8140003208DF81600182049
:100910008DF8170005A93B4800F0FAF80820ADF85B
:10092000140004208DF8170005A9364800F0F0F8EF
:1009300026208DF8000003208DF801008DF80200BC
:1009400001208DF80300684600F00BFE01940020A2
:10095000ADF80800ADF80A00ADF80C00ADF81000D5
:100960000C20ADF80E0001A9254800F034FC01224E
:1009700040F22551224800F0C6FC0121204800F039
:10098000B6FC06B010BD10B540F225511C4800F071
:100990009FFD10B31A4800F01BFDC4B21A4800882E
:1009A00000F40040C8B91848008800F4804060B1E5
:1009B0000A2C03D000201449088020E01248008847
:1009C00040F400401049088019E00D2C06D10E4873
:1009D000008840F480400C49088010E00A480088F4
:1009E000C0F30D0009490C5407480088401C064913
:1009F000088008460088C72801DD0020088010BD57
:100A00000044004000080140200000203808002079
:100A10000948804709480047FEE7FEE7FEE7FEE792
:100A2000FEE7FEE7FEE7FEE7FEE7FEE704480549CE
:100A3000054A064B704700001B04000831010008FE
:100A400060090020600F0020600B0020600B002078
:100A500010B50446CC48844208D10121042000F09E
:100A60002DFB0021042000F029FB46E0C74884420A
:100A700008D10121082000F021FB0021082000F00E
:100A80001DFB3AE0C248844208D10121102000F049
:100A900015FB0021102000F011FB2EE0BD48844220
:100AA00008D10121202000F009FB0021202000F0C6
:100AB00005FB22E0B848844208D10121402000F023
:100AC000FDFA0021402000F0F9FA16E0B348844214
:100AD00008D10121802000F0F1FA0021802000F0EF
:100AE000EDFA0AE0AE48844207D10121801500F0FA
:100AF000E5FA0021A01500F0E1FA10BD10B50121C2
:100B0000084600F0DBFA0021012000F0D7FA10BD02
:100B10002DE9F04102460025002600200023002494
:100B2000002791F803C00CF00F0591F803C00CF0FA
:100B3000100CBCF1000F03D091F802C04CEA05057F
:100B400091F800C0BCF1000F31D0146800202BE0F8
:100B50004FF0010C0CFA00F3B1F800C00CEA0306E8
:100B60009E4220D183004FF00F0C0CFA03F7BC43D8
:100B700005FA03FC4CEA040491F803C0BCF1280F09
:100B800006D14FF0010C0CFA00FCC2F814C00AE0C8
:100B900091F803C0BCF1480F05D14FF0010C0CFADD
:100BA00000FCC2F810C0401C0828D1D31460B1F872
:100BB00000C0BCF1FF0F34DD546800202EE000F1CE
:100BC000080C4FF0010808FA0CF3B1F800C00CEA69
:100BD00003069E4221D183004FF00F0C0CFA03F75D
:100BE000BC4305FA03FC4CEA040491F803C0BCF1D1
:100BF000280F05D100F1080C08FA0CF8C2F814808F
:100C000091F803C0BCF1480F07D100F1080C4FF078
:100C1000010808FA0CF8C2F81080401C0828CED34E
:100C20005460BDE8F0814FF6FF71018002218170B0
:100C30000421C17070470246002093680B400BB13D
:100C4000012000E0002070470146886880B27047AC
:100C500002460020D3680B400BB1012000E00020C9
:100C600070470146C86880B27047016170474161B2
:100C700070470AB1016100E041617047C16070478F
:100C80004FF480320A4382618161826182698269A4
:100C9000704702460020434B18684FF68073184097
:100CA00040EA021008433F4B186070473E49C86154
:100CB0007047F0B50A46002300240021002500F00B
:100CC0000046B6F1004F02D1364EF16901E0354ED3
:100CD0007168C0F3034583B200F44016B6F5401FB7
:100CE00008D121F070612F4E766826F070662D4F86
:100CF0007E6012E000F48016B6F5801F06D1032650
:100D000006FA05F4A14341F0706106E0460D360194
:100D100003FA06F6B14341F0706122B1460D360187
:100D200003FA06F6314300F00046B6F1004F02D157
:100D30001C4EF16101E01B4E7160F0BD30B5002228
:100D40008B071C0F0F2303FA04F2164B08338C1089
:100D500053F824309343134C08348D1044F8253055
:100D600023468C1053F824308C07240F00FA04F427
:100D700023430C4C08348D1044F8253030BD0A490B
:100D8000DC3108607047000000080140000C0140A1
:100D9000001001400014014000180140001C0140F7
:100DA000002001400000014000002042DF480068B0
:100DB00040F00100DD49086008464068DC49084011
:100DC000DA49486008460068DA490840D7490860AF
:100DD0000846006820F4802008600846406820F437
:100DE000FE0048604FF41F0088607047CF490968D3
:100DF00021F48031CD4A11601146096821F4802127
:100E00001160B0F5803F03D0B0F5802F0ED106E021
:100E1000C649096841F48031C44A116007E0C349FA
:100E2000096841F4A021C14A116000E000BF00BF81
:100E3000704710B501460022002300204A11012A04
:100E400002D1BA4C236806E0022A02D1B74C236AC9
:100E500001E0B64C636A01F01F02012494401C407B
:100E60000CB1012000E0002010BD38B5002000903A
:100E70000024002500BF3120FFF7DBFF0546009866
:100E8000401C00900098B0F5A06F01D0002DF2D06A
:100E90003120FFF7CEFF08B1012400E000242046F6
:100EA00038BD01460020A14A106820F0F80040EA51
:100EB000C10010607047A0490860704702460020DA
:100EC0009A4B586820F47C1042EA01031843974B70
:100ED0005860704798490866704701460020934A59
:100EE000506820F003000843506070478F48406806
:100EF00000F00C007047014600208C4A506820F03A
:100F0000F00008435060704701460020874A50684F
:100F100020F4E06008435060704701460020834A97
:100F2000506820F4605040EAC1005060704729B119
:100F30007E4A527A02437D4B5A7204E07B4A527ACF
:100F400082437A4B5A7270477B49D83108607047A8
:100F500001460020754A506820F440400843506024
:100F600070470021714A20321170704A82F82010B7
:100F7000012802D004280AD104E001216B4A203262
:100F8000117005E00521694A2032117000E000BFB0
:100F900000BF70476949086070476449096A0143A6
:100FA000624A11627047654944390860704730B53C
:100FB00000210022002400235C4D6D6805F00C0127
:100FC00021B1042905D0082923D105E05C4D056035
:100FD00022E05B4D05601FE0544D6D6805F4701212
:100FE000524D6D6805F48034022505EB92421CB920
:100FF000544D554305600BE04C4D6D6805F40035CC
:101000001DB1504D5543056002E04D4D55430560FF
:1010100002E04B4D056000BF00BF444D6D6805F018
:10102000F0010909484D6B5C0568DD4045603F4DA6
:101030006D6805F4E061090A434D6B5C4568DD406D
:1010400085603A4D6D6805F46051C90A3E4D6B5C90
:101050004568DD40C560354D6D6805F44041890B3C
:101060003A4D6B5CC568B5FBF3F5056130BD29B140
:101070002E4A526902432D4B5A6104E02B4A5269B1
:1010800082432A4B5A61704729B1284A9269024328
:10109000264B9A6104E0254A92698243234B9A6168
:1010A000704729B1214AD2690243204BDA6104E03A
:1010B0001E4AD26982431D4BDA61704729B11B4A2F
:1010C000D2680243194BDA6004E0184AD2688243BE
:1010D000164BDA60704729B1144A12690243134B68
:1010E0001A6104E0114A12698243104B1A61704779
:1010F00012494039086070470F49C86470470B496E
:10110000C87170470948406A40F0807007494862DA
:10111000704701460020054A92680A400AB1012042
:1011200000E00020704701498872704700100240BB
:101130000000FFF8FFFFF6FE00004242800442423A
:1011400000127A0000093D00220000203200002039
:1011500010B50446FB48844209D101218803FFF7FA
:10116000ADFF00214FF48040FFF7A8FF32E0F648C2
:10117000844209D101214804FFF7ADFF00214FF45B
:101180000030FFF7A8FF25E0F048844209D1012193
:101190008804FFF7A0FF00214FF48020FFF79BFF9A
:1011A00018E0EB48844209D10121C804FFF793FFFE
:1011B00000214FF40020FFF78EFF0BE0E54884424A
:1011C00008D101210805FFF786FF00214FF48010A8
:1011D000FFF781FF10BD2DE9F04786B005460E46AA
:1011E0000024A24600BFA1460027B08900B100BF7D
:1011F0002F462C8A4CF6FF700440F08804432C8262
:10120000AC894EF6F3100440B088318908437189E7
:1012100008430443AC81AC8A4FF6FF400440B089D8
:101220000443AC8201A8FFF7C2FEC648874202D140
:10123000DDF810A001E0DDF80CA0A88900F4004062
:1012400040B10AEBCA0000EB0A1031684900B0FB5C
:10125000F1F807E00AEBCA0000EB0A1031688900D8
:10126000B0FBF1F86420B8FBF0F004012009642120
:1012700001FB1089A88900F4004040B1322000EB46
:10128000C900B0FBF1F000F00700044308E0322091
:1012900000EB09106421B0FBF1F000F00F000443F3
:1012A0002C8106B0BDE8F0874FF416510160002193
:1012B0008180C18001810C214181002181817047A1
:1012C00010B502460020108A4FF2FF0318400B8829
:1012D0004C8823438C882343CC88234318431082B3
:1012E00010BD0021018041808180C180704721B103
:1012F000828942F40052828104E082894DF6FF73B4
:101300001A4082817047F0B503460024002600256C
:10131000002040F66A17B94200D100BF1846C1F359
:10132000421401F01F06012707FA06F5012C01D12E
:101330000C3004E0022C01D1103000E014301AB15E
:1013400007682F43076002E00768AF430760F0BDFE
:101350001AB1838A0B43838202E0838A8B438382A0
:101360007047028A4FF6F0731A400282028A0A43DB
:101370000282704782894FF2FF731A40828182890C
:101380000A438281704721B1828942F00202828140
:1013900004E082894FF6FD731A4082817047028A09
:1013A0004FF6DF731A400282028A0A4302827047B4
:1013B00021B1028A42F48042028204E0028A4BF6A2
:1013C000FF731A4002827047C1F30802828070479F
:1013D00001468888C0F308007047818941F0010107
:1013E00081817047028BD2B20283028B42EA0122D2
:1013F00002837047028B02F47F420283028B0A430E
:101400000283704721B1828A42F02002828204E086
:10141000828A4FF6DF731A408282704721B1828A36
:1014200042F01002828204E0828A4FF6EF731A4083
:101430008282704721B1828A42F00802828204E0EF
:10144000828A4FF6F7731A408282704721B18289EF
:1014500042F40042828103E08289C2F30E0282815B
:10146000704721B1828A42F40062828204E0828A5B
:101470004FF2FF731A4082827047828A4FF6FB73E5
:101480001A408282828A0A438282704721B1828A0C
:1014900042F00202828204E0828A4FF6FD731A4013
:1014A0008282704702460020B1F5007F00D100BF64
:1014B00013880B400BB1012000E00020704701F4BD
:1014C0000072B2F5007F00D100BFCA4302807047AE
:1014D00070B50246002400230025002040F66A165D
:1014E000B14200D100BFC1F3421501F01F03012634
:1014F00006FA03F3012D02D19689334006E0022D4E
:1015000002D1168A334001E0968A33400C1201263C
:1015100006FA04F41688344013B10CB1012000E03F
:10152000002070BD10B50022002340F66A14A142CD
:1015300000D100BF0A1201249440A3B2DC4304800E
:1015400010BD000000380140004400400048004049
:10155000004C00400050004031490143314A1160C5
:10156000704770B5002100230F22C47804B32D4CBE
:10157000246804F4E064C4F5E064210AC1F10403C2
:10158000CA40447804FA03F18478144021430901E5
:10159000254C0678A155047804F01F050124AC40C1
:1015A00005786D11AD0005F1E025C5F8004109E0B1
:1015B000047804F01F050124AC401C4D0678761118
:1015C00045F8264070BD1A4A0A400243154B1B1FBE
:1015D0001A60704739B1134A121D12680243114B49
:1015E0001B1D1A6006E00F4A121D126882430D4B44
:1015F0001B1D1A607047042808D14FF0E0210969CB
:1016000041F004014FF0E022116107E04FF0E021CA
:10161000096921F004014FF0E022116170470000D8
:101620000000FA050CED00E000E400E080E100E0DD
:1016300080FFFF1F01460020FE4A106800F03800BE
:10164000084310607047FB49096821F00801F94A16
:10165000116011460968014311607047F549096836
:1016600021F01001F34A116011460968014311602D
:101670007047F148EF494860F0484860EE484864D8
:10168000EE4848647047EC48EA494860EB484860D7
:101690007047E948E7494864E84848647047E548C6
:1016A000006940F08000E34908610846006D40F0A1
:1016B000800008657047DF48006940F08000DD4920
:1016C00008617047DB48006D40F08000D94908652B
:1016D00070470420D749C96C01F0010109B101200C
:1016E0000EE0D449C96C01F0040109B1022007E001
:1016F000D049C96C01F0100109B1032000E00420B9
:10170000704700B502460423FFF7E3FF034603E0FA
:10171000FFF7DFFF0346521E012B01D1002AF7D14C
:1017200002B90523184600BD0420C249C96801F06A
:10173000010109B101200EE0BE49C96801F00401B0
:1017400009B1022007E0BB49C96801F0100109B1E5
:10175000032000E00420704700B502460423FFF791
:10176000E3FF034603E0FFF7DFFF0346521E012BB2
:1017700001D1002AF7D102B90523184600BD30B5C2
:1017800004460425AE4884421FD24FF43020FFF7B0
:10179000E3FF0546042D37D1A648006940F002005A
:1017A000A449086108464461006940F040000861AE
:1017B0004FF43020FFF7D0FF05469E48006941F600
:1017C000FD7108409B4908611EE04FF43020FFF78F
:1017D00098FF0546042D17D19648006D40F0020091
:1017E0009449086508464465006D40F0400008656E
:1017F0004FF43020FFF785FF05468E48006D41F617
:10180000FD7108408B490865284630BD10B5042499
:101810004FF43020FFF7A0FF0446042C16D1854872
:10182000006940F00400834908610846006940F0FF
:10183000400008614FF43020FFF78EFF04467D48DA
:10184000006941F6FB7108407A490861042C16D101
:101850007848006D40F00400764908650846006D40
:1018600040F0400008654FF43020FFF74AFF04467F
:101870007048006D41F6FB7108406E4908652046CE
:1018800010BD10B504244FF43020FFF765FF044667
:10189000042C16D16748006940F0040065490861CE
:1018A0000846006940F0400008614FF43020FFF71F
:1018B00053FF04465F48006941F6FB7108405D49EB
:1018C0000861204610BD10B504244FF43020FFF706
:1018D00018FF0446042C16D15648006D40F0040051
:1018E000544908650846006D40F0400008654FF413
:1018F0003020FFF706FF04464E48006D41F6FB71AD
:1019000008404C490865204610BD00B50246042336
:10191000FFF70AFF034603E0FFF706FF0346521EE8
:10192000012B01D1002AF7D102B90523184600BDC9
:1019300000204049C96901F0020109B1012000E01D
:101940000020704730B5A5250424FFF7F1FF00B152
:1019500000254FF43020FFF7D8FF0446042C3AD17D
:10196000354834498860354888600846006940F049
:10197000200008610846006940F0400008614FF40B
:101980003020FFF7C2FF0446042C1BD12948006910
:1019900041F6DF710840274908610846006940F0B8
:1019A0001000086127480580E002FFF7AEFF0446FB
:1019B000052C10D01F48006941F6EF7108401D4901
:1019C000086108E0052C06D01A48006941F6EF715D
:1019D000084018490861204630BD78B504460D46D8
:1019E0000426002000901648801E844236D2F00261
:1019F000FFF7B2FE0646042E27D10E48006940F0DC
:101A000001000C4908612580F002FFF77EFF0646C1
:101A1000042E1BD1A01C0090280C00990880F00215
:101A2000FFF773FF06460348006941F6FE71084060
:101A3000004909E00020024023016745AB89EFCD52
:101A4000FFFF070800F8FF1F08617DE0F748006905
:101A500041F6FE710840F549086175E0F44884429A
:101A600046D14FF40050FFF777FE0646042E12D100
:101A7000EE48006940F00100EC4908612580F00261
:101A8000FFF76AFE0646E948006941F6FE71084024
:101A9000E649086106E0E548006941F6FE71084044
:101AA000E24908614FF40050FFF72BFE0646042E72
:101AB00016D1DE48006D40F00100DC490865A01C2D
:101AC0000090280C00990880F002FFF71AFE0646E5
:101AD000D648006D41F6FE710840D449086533E0F0
:101AE000D248006D41F6FE710840D04908652BE0F0
:101AF0004FF40050FFF705FE0646042E24D1CB48D4
:101B0000006D40F00100C94908652580F002FFF72B
:101B1000F8FD0646042E10D1A01C0090280C009958
:101B20000880F002FFF7EDFD0646C048006D41F663
:101B3000FE710840BD49086506E0BC48006D41F6ED
:101B4000FE710840B9490865304678BD70B5044655
:101B50000D460426F002FFF7D8FE0646B448401CA6
:101B6000844214D2042E26D1B048006940F001000E
:101B7000AE4908612580F002FFF7EEFD0646AB484E
:101B8000006941F6FE710840A849086113E0042E7F
:101B900011D1A648006D40F00100A44908652580D8
:101BA000F002FFF7AEFD0646A048006D41F6FE715B
:101BB00008409E490865304670BD70B505460E4622
:101BC0000424E002FFF7A1FE0446042C17D1994833
:101BD00096498860984888600846006940F010007F
:101BE00008612E80E002FFF790FE0446052C06D027
:101BF0008E48006941F6EF7108408C490861204623
:101C000070BD2DE9F04304464FF6FF763746B046E7
:101C1000B1460425E443E6B2C4F30727C4F30748FA
:101C20004FEA1469E802FFF770FE0546042D3FD124
:101C300080487E498860804888600846006940F096
:101C400010000861FF2E05D07C480680E802FFF7EF
:101C50005CFE0546042D08D1FF2F06D07748801C76
:101C60000780E802FFF751FE0546042D0AD1B8F1BE
:101C7000FF0F07D07148001DA0F80080E802FFF7B1
:101C800044FE0546042D0AD1B9F1FF0F07D06B4879
:101C9000801DA0F80090E802FFF737FE0546052DED
:101CA00006D06248006941F6EF7108405F4908615B
:101CB0002846BDE8F08330B5054604244FF43020B3
:101CC000FFF723FE0446042C43D15A485749886045
:101CD000594888600846006940F0200008610846BD
:101CE000006940F0400008614FF43020FFF70DFE1E
:101CF0000446042C24D14D48006941F6DF710840A8
:101D00004A4908610846006940F01000086125B1A1
:101D100000204A490839088003E0A52047490839CE
:101D200008804FF43020FFF7F0FD0446052C10D05A
:101D30003E48006941F6EF7108403C49086108E0FF
:101D4000052C06D03948006941F6DF710840374953
:101D50000861204630BDF0B505460E4617460424FE
:101D600034483249886034488860E002FFF7CDFD8E
:101D70000446042C19D12D48006940F010002B496D
:101D8000086147F0F800304328432C49891F088038
:101D9000E002FFF7BAFD0446052C06D0234800698F
:101DA00041F6EF710840214908612046F0BD30B589
:101DB000054604241F481D4988601F488860E002CA
:101DC000FFF7A3FD0446042C26D11848006940F013
:101DD00010001649086145B91848801F008840F076
:101DE00008001649891F088008E01448801F0088F1
:101DF0004FF6F77108401149891F08804FF40050D1
:101E0000FFF783FD0446052C06D00848006941F61B
:101E1000EF71084005490861204630BD0348C0699C
:101E2000800870470148006A7047000000200240A7
:101E3000FEFF070823016745AB89EFCD08F8FF1FB8
:101E400000203549096801F0200109B1012000E0B6
:101E50000020704700F0004282B139B12E4A126D65
:101E600020F000431A432C4B1A6513E02A4A126DE6
:101E700020F000439A43284B1A650BE029B1264A0B
:101E800012690243244B1A6104E0234A1269824317
:101E9000214B1A61704701460020012908D11E4AD2
:101EA000D26902F001020AB1012013E0002011E022
:101EB00001F000423AB1184AD26C0A400AB101203E
:101EC00008E0002006E0144AD2680A400AB1012066
:101ED00000E00020704700F0004111B10E49C864D5
:101EE00001E00D49C860704704200B49C96801F042
:101EF000010109B101200EE00749C96801F00401A0
:101F000009B1022007E00449C96801F0100109B1D4
:101F1000032000E0042070470020024070470000CA
:101F20000FB4044910B503AA029800F07DF810BC64
:101F30005DF814FB1C0000202DE9F0410E4604461C
:101F4000002020622046E168884730B3252805D06C
:101F5000D4E901219047206A401CF2E7E16820465D
:101F600000278847050018D0A5F14100192802D89C
:101F700020354FF400673246294620462760FEF799
:101F800011F940B1012804D0F61D26F007060836E5
:101F9000D8E7361DD6E72846DAE7206ABDE8F081A3
:101FA00070B50C460546012A05D02878800600D574
:101FB000EA69002302E0012305E05B1C934202D2A0
:101FC000E05C0028F9D1A869E618C01AA861286A5F
:101FD000184428622846AFF3008004E0D5E90121C7
:101FE00014F8010B9047B442F8D32846AFF30080B1
:101FF00070BD704770477047704710B5436913B1A3
:10200000AFF3008001E0FFF7CBFF012010BD127895
:1020100000F124010A7000224A700122EDE71168E4
:102020004FF0FF32E9E70000074B70B50D467B44E7
:1020300000F011F80446284600F020F810B14FF0E7
:10204000FF3070BD204670BDA3E8FFFF01694A1C48
:1020500002610878704700B58FB0CDE901310021E9
:10206000059105497944CDE9031011466846FFF70B
:1020700063FF0FB000BD0000E5FFFFFF007B00F035
:1020800080007047754600F02BF8AE4605006946A3
:10209000534620F00700854618B020B5FEF7C6FC71
:1020A000BDE820404FF000064FF000074FF0000859
:1020B0004FF0000B21F00701AC46ACE8C009ACE8DA
:1020C000C009ACE8C009ACE8C0098D46704710B53E
:1020D0000446AFF300802046BDE81040FEF774B818
:1020E000004870470009002053544D333220464CBD
:1020F0004153482054455354000000001C2100085F
:1021000000000020380000006C0100085421000885
:1021100038000020280F00008801000800A24A04AF
:102120000000000000000000010203040607080987
:10213000010000000000000000000000000000009E
:102140000000010203040102030406070809020457
:04215000060800007D
:0400000508000131BD
:00000001FF
