:020000040800F2
:100000008807002045120008FD030008FF030008D0
:1000100003040008070400080B04000800000000A7
:100020000000000000000000000000000F040008B5
:100030001104000800000000130400081504000863
:100040005F1200085F1200085F1200085F120008CC
:100050005F1200085F1200085F1200085F120008BC
:100060005F1200085F1200085F1200085F120008AC
:100070005F1200085F1200085F1200085F1200089C
:100080005F1200085F1200085F1200085F1200088C
:100090005F1200085F1200085F1200085F1200087C
:1000A0005F1200085F1200085F1200085F1200086C
:1000B0005F1200085F1200085F1200085F1200085C
:1000C0005F1200085F1200085F1200085F1200084C
:1000D0005F1200085F120008B91100085F120008E3
:1000E0005F1200085F1200085F1200085F1200082C
:1000F0005F1200085F1200085F1200085F1200081C
:100100005F1200085F1200085F1200085F1200080B
:100110005F1200085F1200085F1200085F120008FB
:100120005F1200085F1200085F1200085F120008EB
:1001300000F002F800F050F80AA090E8000C8244A9
:100140008344AAF10107DA4501D100F045F8AFF286
:10015000090EBAE80F0013F0010F18BFFB1A43F0A5
:1001600001031847004A0000204A0000103A24BF4B
:1001700078C878C1FAD8520724BF30C830C144BF0C
:1001800004680C607047000000230024002500264E
:10019000103A28BF78C1FBD8520728BF30C148BFEA
:1001A0000B607047662904F0B283642901F09486DD
:1001B000782901F0CD86632902F02582002070475E
:1001C0001FB502F03FFA04000020002103F022FDD9
:1001D000E0601FBD10B510BD02F050FB1146FFF7E7
:1001E000EFFF00F062F802F06EFB03B4FFF7F2FFDE
:1001F00003BC00F085FF000070B586B00025002626
:100200000EE04DA001F032FE41F2883000F04BFFCD
:100210005448006808B9012000E0002051490860F6
:1002200000F099FA0028ECD14FA001F01FFE002049
:1002300000F040FC0446032C0AD14FA001F016FE4A
:1002400013225349002000F0AEFA52A001F00EFE36
:10025000012C18D155A001F009FE132201A900209C
:1002600000F090FA57A001F001FE132606E001A865
:10027000415D5AA001F0FAFD701E86B2002EF6DC38
:1002800037A001F0F3FD681C85B20A2000F00BFFD7
:10029000142D08D13348006808B9012000E000207F
:1002A00030490860002506B070BD4FF4A06001F031
:1002B0006DFD00F0BBFE4FF4E13000F030FF00F0C8
:1002C0009BF900F0D3FB00F0C3F901E0FFF794FFC6
:1002D000FCE72DE9F0410024002000F0EBFB05468F
:1002E000012D16D100F085FCD02000F039FC3D49ED
:1002F0000870084601783CA001F0B8FD00F0F1FC60
:10030000064600F000FD07463946304600F00FFD76
:1003100000BF601C84B20A2000F0C5FE142C08D176
:100320001048006808B9012000E000200D4908606D
:100330000024BDE8F08100003234433032204368AD
:1003400065636B204661696C6564212020506C6593
:1003500061736520436865636B2120202020202085
:100360000D0A00009401214232344330322052659C
:10037000616479210D0A0000537461727420577210
:100380006974652032344330322E2E2E2E0D0A0031
:10039000024A0008323443303220577269746520B3
:1003A00046696E6973686564210D0A005374617251
:1003B0007420526561642032344330322E2E2E2E4A
:1003C000200D0A0054686520446174612052656103
:1003D0006465642049733A202000000020256320D2
:1003E0000000000000000020424D503138305F49CD
:1003F000443A30782578200D0A000000704700BF8D
:10040000FEE700BFFEE700BFFEE700BFFEE7704764
:1004100070477047704700000CB5002001900090B5
:100420006C48006840F480306A49086000BF694841
:10043000006800F4003000900198401C0190009882
:1004400018B90198B0F5A06FF1D16248006800F4C6
:10045000003010B10120009001E0002000900098D1
:10046000012843D15C48006840F010005A490860F8
:100470000846006820F0030008600846006840F065
:100480000200086053484068524948600846406886
:1004900048600846406840F480604860084640680C
:1004A00020F47C1048600846406840F4E81048603A
:1004B0000846006840F08070086000BF454800684A
:1004C00000F000700028F9D04248406820F0030096
:1004D000404948600846406840F00200486000BF5C
:1004E0003C48406800F00C000828F9D10CBD10B55C
:1004F000FFF792FF10BD10B53648006840F00100CC
:100500003449086008464068344908403149486029
:1005100008460068324908402E49086008460068CD
:1005200020F4802008600846406820F4FE004860FF
:100530004FF41F008860FFF7DAFF4FF00060294991
:10054000086010BD10B5002100200022214B5B681F
:1005500003F00C0121B1042906D0082928D107E0B5
:10056000214B224C236027E01F4B204C236023E0CB
:10057000184B5B6803F47010164B5B6803F4803211
:10058000022303EB904022B9194B4343174C2360DD
:100590000DE0104B5B6803F4003323B1144B43436D
:1005A000124C236003E0104B4343104C236003E0E4
:1005B0000D4B0E4C236000BF00BF064B5B68C3F3BE
:1005C00003130C4CE15C094B1B68CB40074C2360C8
:1005D00010BD000000100240002002400000FFF8A3
:1005E000FFFFF6FE08ED00E000127A000400002094
:1005F00000093D000800002008B50121242001F079
:100600005DF92020ADF8000010208DF803000320D4
:100610008DF8020069460C4800F094FE20210A483B
:1006200000F03DFF0420ADF8000010208DF803001D
:1006300003208DF802006946044800F083FE04217F
:10064000024800F02CFF08BD0008014000140140E2
:1006500010B500F0BBF810BD70B50446002600F0E0
:10066000E2F82546E11704EB11610912A02202EB22
:100670004101C8B200F08FF900F01AF9E11704EB5C
:1006800011610912A4EB0121C8B200F084F900F055
:100690000FF900F0C8F8A12000F07DF900F008F98A
:1006A000002000F0A7F9064600F0E1F8304670BDE2
:1006B00070B504460E4600F0B6F82546E11704EB87
:1006C00011610912A02202EB4101C8B200F063F9E6
:1006D00000F0EEF8E11704EB11610912A4EB01211F
:1006E000C8B200F058F900F0E3F8304600F053F9D2
:1006F00000F0DEF800F0BBF80A2000F0D4FC70BD7A
:100700002DE9F04105460E461746002409E0E200B7
:1007100026FA02F2D1B22A1990B2FFF7C9FF601C83
:10072000C4B2BC42F3DBBDE8F0812DE9F0410746DD
:100730000C460026002509E036023919491B491EDE
:1007400088B2FFF789FF0644681CC5B2A542F3DBF7
:100750003046BDE8F08110B5FF20FFF77DFF04466D
:10076000552C01D1002010BD5521FF20FFF7A0FF1F
:10077000FF20FFF771FF0446552C01D10020F2E75E
:100780000120F0E770B506460C46154608E03046F5
:10079000721C96B2FFF760FF04F8010B681E85B269
:1007A000002DF4D170BD70B505460C46164606E026
:1007B00021782846FFF77CFF681C85B2641C301E38
:1007C000A6F101018EB2F3D170BD000008B5012180
:1007D0000C2001F073F84FF44070ADF800001420C5
:1007E0008DF8030003208DF8020069469B4800F055
:1007F000A9FD4FF48060ADF8000010208DF80300D3
:1008000003208DF802006946954800F09BFD4FF4E7
:100810008061934800F043FE0120924908609249AC
:10082000C1F8A00108BD10B58C48001D006820F07B
:100830000F008A49091D08600846006840F003005F
:10084000086001208749091F08608749C1F8A40191
:10085000042000F004FC00208249091F08600420E5
:1008600000F0FDFB00208049C1F8A40110BD10B5C7
:100870007A48001D006820F00F007849091D0860C3
:100880000846006840F003000860002075490860D1
:100890007549C1F8A001042000F0E1FB0120714975
:1008A00008607149C1F8A001042000F0D8FB10BD18
:1008B00010B500246948001D006820F00F0067494A
:1008C000091D08600846006840F008000860012023
:1008D0006449091F086000F0C2FB01206249C1F8A9
:1008E000A40100F0BCFB07E0601CC4B2FA2C03DDDD
:1008F000FFF7BDFF012010BD5A488438006800286A
:10090000F2D15849086000BFF5E710B500205549FD
:1009100008605248001D006820F00F004F49091D73
:1009200008600846006840F00300086000204E4957
:10093000C1F8A001022000F092FB012049490860A3
:10094000022000F08CFB00204749C1F8A40110BD33
:1009500010B50020434908604048001D006820F0A1
:100960000F003E49091D08600846006840F003007A
:10097000086001203C49C1F8A001022000F06FFB93
:10098000012038490860022000F069FB0020364948
:10099000C1F8A40110BD70B504463048001D0068C0
:1009A00020F00F002D49091D08600846006840F03E
:1009B0000300086000202B490860002517E0E009CB
:1009C0002849091F08606006040E022000F047FB5A
:1009D00001202549C1F8A401022000F040FB0020BD
:1009E00020490860022000F03AFB681CC5B2082DBF
:1009F000E5DB70BD70B5054600241848001D006891
:100A000020F00F001549091D08600846006840F0F5
:100A100008000860002616E0002012490860022045
:100A200000F01DFB01201049C1F8A4016006040E6E
:100A30000C488438006808B1601CC4B2012000F082
:100A40000EFB701CC6B2082EE6DB15B9FFF780FF5F
:100A500001E0FFF75AFF204670BD0000000801408A
:100A6000000C0140A40121420000214208B50121EF
:100A70000C2000F023FF0120ADF8000048208DF885
:100A800003006946314800F05DFC4020ADF80000ED
:100A900048208DF8030069462C4800F053FC0120E3
:100AA000ADF8000028208DF803006946284800F0C2
:100AB00049FC08BD10B5044614B101202549087051
:100AC0002448007858B30121204800F0CEFC50B1F2
:100AD00040211E4800F0C9FC28B101211C4800F04B
:100AE000C4FC01281BD10A2000F0DDFA00201949BE
:100AF00008700121154800F0B8FC08B9012010BDAC
:100B00004021124800F0B1FC08B90220F7E70121AA
:100B10000F4800F0AAFC012815D10320EFE70121BE
:100B20000A4800F0A2FC01280DD14021074800F03E
:100B30009CFC012807D10121054800F096FC10B962
:100B40000120044908700020D9E70000000C014092
:100B5000000801401800002010B5FFF737FE10BD57
:100B600070B504460025FFF75EFEEE20FFF713FF89
:100B70002046FFF710FFFFF756FEEF20FFF70BFFB1
:100B80000120FFF737FF0546FFF771FE284670BDCD
:100B90002DE9F0410546FFF746FEEE20FFF7FBFE8C
:100BA0002846FFF7F8FEFFF73EFEEF20FFF7F3FEC3
:100BB0000020FFF71FFF04460120FFF71BFF06463A
:100BC000FFF755FE06EB042007B23846BDE8F0817A
:100BD00070B505460C46FFF726FEEE20FFF7DBFE5C
:100BE0002846FFF7D8FE2046FFF7D5FEFFF73FFE69
:100BF00070BD10B5AA20FFF7CBFFC1490880AC201B
:100C0000FFF7C6FFBF490880AE20FFF7C1FFBE490E
:100C10000880B020FFF7BCFFBC490880B220FFF776
:100C2000B7FFBB490880B420FFF7B2FFB94908807D
:100C3000B620FFF7ADFFB8490880B820FFF7A8FF3E
:100C4000B6490880BA20FFF7A3FFB5490880BC2049
:100C5000FFF79EFFB3490880BE20FFF799FFB24916
:100C60000880A748B0F90010B0A001F0FFF8A5482F
:100C7000B0F90010B0A001F0F9F8A348B0F90010E5
:100C8000B0A001F0F3F8A1480188B1A001F0EEF89E
:100C90009F480188B1A001F0E9F89E480188B2A000
:100CA00001F0E4F89C48B0F90010B2A001F0DEF8C1
:100CB0009A48B0F90010B2A001F0D8F89848B0F9FD
:100CC0000010B2A001F0D2F89648B0F90010B2A01E
:100CD00001F0CCF89448B0F90010B2A001F0C6F8C9
:100CE00010BD10B52E21F420FFF772FF0A2000F08E
:100CF000DAF9F620FFF74CFF04462146ACA001F0DC
:100D0000B5F8204610BD10B500243421F420FFF7BB
:100D10005FFF0A2000F0C7F9F620FFF739FF04460D
:100D2000A4B22146A5A001F0A1F8204610BD2DE9EE
:100D3000F04F8FB081468A4676480088A9EB0000C4
:100D4000734909884843C4137648B0F90000C002CB
:100D50007549B1F90010214490FBF1F560190C9030
:100D60000C98083000110B900B9803F0DEF900226C
:100D7000954BCDE9060103F051F8CDE9080102F0E9
:100D80005FFF924908600846006803F031FD0246A3
:100D90000B46CDE908018EA001F068F80C98A0F58B
:100DA0007A665E48B0F9000070437043C415554838
:100DB000B0F900007043C51204EB050B5049B1F9BE
:100DC00000100BEB8101881CC11700EB9171891099
:100DD0000D914D48B0F900007043441306FB06F036
:100DE00000134D49B1F90010484305146019801CE7
:100DF0004FEAA00B454800880BF500414843C00B63
:100E00000A900D98AAEB00004CF2503100FB01F85B
:100E1000B8F1004F05D24FEA48010A98B1FBF0F74C
:100E200003E00A98B8FBF0F04700384603F07DF97C
:100E300000226C4BCDE9020102F0F0FFCDE9060182
:100E4000384603F072F90022664BCDE9020102F048
:100E5000E5FFCDE90401DDE9062303F0B9F9CDE9A9
:100E6000080103F033F9044640F6DE306043041411
:100E70005D4878430514601900F6CF6007EB201732
:100E8000384603F0E1FC594908600846006803F061
:100E9000AFFC02460B46CDE9080155A000F0E6FF85
:100EA000384603F042F90022554BCDE9000102F02B
:100EB000B5FF544A544BCDE9020102F099F90022E2
:100EC000524BCDE9040103F0B7FA0022504BCDE9B3
:100ED000060103F07DF9CDE9080102F0B1FE4D49AC
:100EE00008600846006803F083FC02460B46CDE923
:100EF000080149A000F0BAFF0FB0BDE8F08F000074
:100F00001C0000201E0000202000002022000020E5
:100F10002400002026000020280000202A000020B5
:100F20002C0000202E000020300000204143313AE8
:100F30002564200D0A0000004143323A2564200D4B
:100F40000A0000004143333A2564200D0A000000E6
:100F50004143343A2564200D0A0000004143353AEC
:100F60002564200D0A0000004143363A2564200D17
:100F70000A00000042313A2564200D0A00000000FA
:100F800042323A2564200D0A000000004D423A2505
:100F900064200D0A000000004D433A2564200D0A2C
:100FA000000000004D443A2564200D0A00000000B6
:100FB00055543A256C64200D0A00000055503A251E
:100FC0006C64200D0A000000000024403400002062
:100FD00054656D70657261747572653A252E31665F
:100FE000200D0A000000704043E3FFFF380000209E
:100FF00050726573733A252E31665061200D0A00D8
:10100000D0BCF8406C45D9CC955BC83F0000F03FA0
:1010100040A5E5403C000020416C7469747564652E
:101020003A252E33666D200D0A00000010B56FF0D2
:10103000040000F0FAFE2E4800682E49B0FBF1F0E3
:101040002D4908700846007800EB4001C1EBC01044
:101050004FF6FF7101EAC0002849088010BD014623
:10106000254A12784A434FF0E0235A6100229A61E0
:101070001A46126942F001021A6100BF4FF0E022E5
:10108000106900F001021AB100F48032002AF5D094
:101090004FF0E022126922F001024FF0E0231A61C2
:1010A00000229A6170470146144A12884A434FF061
:1010B000E0235A6100229A611A46126942F0010245
:1010C0001A6100BF4FF0E022106900F001021AB16E
:1010D00000F48032002AF5D04FF0E022126922F0AD
:1010E00001024FF0E0231A6100229A61704700006C
:1010F0000400002000127A0040000020420000207E
:10110000014600BF704700BF4A4A128802F0400201
:10111000002AF9D0C2B2474B1B1D1A80704710B588
:1011200086B004460121480400F0D5FB01210420CB
:1011300000F0C4FB0420ADF8140003208DF8160065
:1011400018208DF8170005A93B4800F0FBF808208F
:10115000ADF8140004208DF8170005A9364800F0FA
:10116000F1F826208DF8000003208DF801008DF89D
:10117000020001208DF80300684600F00CFE019487
:101180000020ADF80800ADF80A00ADF80C00ADF88D
:1011900010000C20ADF80E0001A9264800F035FC27
:1011A000012240F22551234800F0C7FC01212148CB
:1011B00000F0B7FC06B010BD10B540F225511D4837
:1011C00000F0A0FD10B31B4800F01CFDC4B21B488A
:1011D000008800F40040C8B91848008800F4804036
:1011E00060B10A2C03D000201449088020E0134885
:1011F000008840F400401149088019E00D2C06D108
:101200000E48008840F480400C49088010E00B48EC
:101210000088C0F30D000A490C5408480088401C9F
:101220000649088008460088C72801DD002008809C
:1012300010BD0000004400400008014048000020AC
:10124000600000200948804709480047FEE7FEE7A4
:10125000FEE7FEE7FEE7FEE7FEE7FEE7FEE7FEE766
:1012600004480549054A064B70470000F70400088A
:101270003101000888010020880700208803002031
:101280008803002010B50446CC48844208D10121CF
:10129000042000F02DFB0021042000F029FB46E093
:1012A000C748844208D10121082000F021FB002119
:1012B000082000F01DFB3AE0C248844208D1012119
:1012C000102000F015FB0021102000F011FB2EE093
:1012D000BD48844208D10121202000F009FB0021F3
:1012E000202000F005FB22E0B848844208D101210B
:1012F000402000F0FDFA0021402000F0F9FA16E04D
:10130000B348844208D10121802000F0F1FA002185
:10131000802000F0EDFA0AE0AE48844207D10121B6
:10132000801500F0E5FA0021A01500F0E1FA10BDEB
:1013300010B50121084600F0DBFA0021012000F081
:10134000D7FA10BD2DE9F041024600250026002005
:1013500000230024002791F803C00CF00F0591F83A
:1013600003C00CF0100CBCF1000F03D091F802C0C8
:101370004CEA050591F800C0BCF1000F31D01468AB
:1013800000202BE04FF0010C0CFA00F3B1F800C084
:101390000CEA03069E4220D183004FF00F0C0CFA9A
:1013A00003F7BC4305FA03FC4CEA040491F803C0BC
:1013B000BCF1280F06D14FF0010C0CFA00FCC2F86A
:1013C00014C00AE091F803C0BCF1480F05D14FF0FA
:1013D000010C0CFA00FCC2F810C0401C0828D1D344
:1013E0001460B1F800C0BCF1FF0F34DD5468002078
:1013F0002EE000F1080C4FF0010808FA0CF3B1F8E8
:1014000000C00CEA03069E4221D183004FF00F0C6E
:101410000CFA03F7BC4305FA03FC4CEA040491F808
:1014200003C0BCF1280F05D100F1080C08FA0CF834
:10143000C2F8148091F803C0BCF1480F07D100F145
:10144000080C4FF0010808FA0CF8C2F81080401C94
:101450000828CED35460BDE8F0814FF6FF710180BB
:10146000022181700421C1707047024600209368F8
:101470000B400BB1012000E0002070470146886856
:1014800080B2704702460020D3680B400BB10120A8
:1014900000E0002070470146C86880B270470161D3
:1014A0007047416170470AB1016100E041617047D6
:1014B000C16070474FF480320A438261816182616A
:1014C00082698269704702460020434B18684FF6D4
:1014D0008073184040EA021008433F4B1860704781
:1014E0003E49C8617047F0B50A4600230024002138
:1014F000002500F00046B6F1004F02D1364EF169EA
:1015000001E0354E7168C0F3034583B200F4401624
:10151000B6F5401F08D121F070612F4E766826F095
:1015200070662D4F7E6012E000F48016B6F5801FC5
:1015300006D1032606FA05F4A14341F0706106E0E6
:10154000460D360103FA06F6B14341F0706122B14F
:10155000460D360103FA06F6314300F00046B6F1B7
:10156000004F02D11C4EF16101E01B4E7160F0BDD5
:1015700030B500228B071C0F0F2303FA04F2164B21
:1015800008338C1053F824309343134C08348D10D7
:1015900044F8253023468C1053F824308C07240F50
:1015A00000FA04F423430C4C08348D1044F8253021
:1015B00030BD0A49DC310860704700000008014076
:1015C000000C0140001001400014014000180140CF
:1015D000001C0140002001400000014000002042AA
:1015E000DF48006840F00100DD49086008464068B7
:1015F000DC490840DA49486008460068DA49084092
:10160000D74908600846006820F480200860084632
:10161000406820F4FE0048604FF41F008860704767
:10162000CF49096821F48031CD4A1160114609681B
:1016300021F480211160B0F5803F03D0B0F5802FF8
:101640000ED106E0C649096841F48031C44A1160F0
:1016500007E0C349096841F4A021C14A116000E0D4
:1016600000BF00BF704710B50146002200230020D4
:101670004A11012A02D1BA4C236806E0022A02D19B
:10168000B74C236A01E0B64C636A01F01F020124E3
:1016900094401C400CB1012000E0002010BD38B582
:1016A000002000900024002500BF3120FFF7DBFF61
:1016B00005460098401C00900098B0F5A06F01D03E
:1016C000002DF2D03120FFF7CEFF08B1012400E059
:1016D0000024204638BD01460020A14A106820F0B1
:1016E000F80040EAC10010607047A04908607047E8
:1016F000024600209A4B586820F47C1042EA01030D
:101700001843974B586070479849086670470146E0
:101710000020934A506820F003000843506070474F
:101720008F48406800F00C007047014600208C4A4A
:10173000506820F0F00008435060704701460020D8
:10174000874A506820F4E0600843506070470146C3
:101750000020834A506820F4605040EAC100506085
:10176000704729B17E4A527A02437D4B5A7204E097
:101770007B4A527A82437A4B5A7270477B49D831FE
:101780000860704701460020754A506820F44040C8
:101790000843506070470021714A20321170704A2E
:1017A00082F82010012802D004280AD104E0012187
:1017B0006B4A2032117005E00521694A2032117010
:1017C00000E000BF00BF7047694908607047644986
:1017D000096A0143624A11627047654944390860E9
:1017E000704730B500210022002400235C4D6D6855
:1017F00005F00C0121B1042905D0082923D105E009
:101800005C4D056022E05B4D05601FE0544D6D6846
:1018100005F47012524D6D6805F48034022505EB15
:1018200092421CB9544D554305600BE04C4D6D6818
:1018300005F400351DB1504D5543056002E04D4D96
:101840005543056002E04B4D056000BF00BF444DAD
:101850006D6805F0F0010909484D6B5C0568DD40D5
:1018600045603F4D6D6805F4E061090A434D6B5CCE
:101870004568DD4085603A4D6D6805F46051C90AE0
:101880003E4D6B5C4568DD40C560354D6D6805F4C7
:101890004041890B3A4D6B5CC568B5FBF3F50561BA
:1018A00030BD29B12E4A526902432D4B5A6104E0E2
:1018B0002B4A526982432A4B5A61704729B1284A00
:1018C00092690243264B9A6104E0254A9269824359
:1018D000234B9A61704729B1214AD2690243204BB8
:1018E000DA6104E01E4AD26982431D4BDA61704717
:1018F00029B11B4AD2680243194BDA6004E0184A46
:10190000D2688243164BDA60704729B1144A1269D3
:101910000243134B1A6104E0114A12698243104BCF
:101920001A61704712494039086070470F49C8640E
:1019300070470B49C87170470948406A40F0807091
:1019400007494862704701460020054A92680A40EC
:101950000AB1012000E000207047014988727047F9
:10196000001002400000FFF8FFFFF6FE00004242B8
:101970008004424200127A0000093D004A00002023
:101980005A00002010B50446FB48844209D10121C9
:101990008803FFF7ADFF00214FF48040FFF7A8FF59
:1019A00032E0F648844209D101214804FFF7ADFF37
:1019B00000214FF40030FFF7A8FF25E0F0488442F3
:1019C00009D101218804FFF7A0FF00214FF48020F6
:1019D000FFF79BFF18E0EB48844209D10121C804BE
:1019E000FFF793FF00214FF40020FFF78EFF0BE07D
:1019F000E548844208D101210805FFF786FF002150
:101A00004FF48010FFF781FF10BD2DE9F04786B03D
:101A100005460E460024A24600BFA1460027B08915
:101A200000B100BF2F462C8A4CF6FF700440F088AE
:101A300004432C82AC894EF6F3100440B0883189FF
:101A40000843718908430443AC81AC8A4FF6FF40D8
:101A50000440B0890443AC8201A8FFF7C2FEC64827
:101A6000874202D1DDF810A001E0DDF80CA0A889C2
:101A700000F4004040B10AEBCA0000EB0A103168E4
:101A80004900B0FBF1F807E00AEBCA0000EB0A10CE
:101A900031688900B0FBF1F86420B8FBF0F0040174
:101AA0002009642101FB1089A88900F4004040B19D
:101AB000322000EBC900B0FBF1F000F00700044356
:101AC00008E0322000EB09106421B0FBF1F000F0D7
:101AD0000F0004432C8106B0BDE8F0874FF4165187
:101AE000016000218180C18001810C2141810021A0
:101AF0008181704710B502460020108A4FF2FF0323
:101B000018400B884C8823438C882343CC8823437C
:101B10001843108210BD0021018041808180C18066
:101B2000704721B1828942F40052828104E08289A7
:101B30004DF6FF731A4082817047F0B503460024CA
:101B400000260025002040F66A17B94200D100BFE8
:101B50001846C1F3421401F01F06012707FA06F5E3
:101B6000012C01D10C3004E0022C01D1103000E036
:101B700014301AB107682F43076002E00768AF43CB
:101B80000760F0BD1AB1838A0B43838202E0838A27
:101B90008B4383827047028A4FF6F0731A400282A9
:101BA000028A0A430282704782894FF2FF731A4009
:101BB000828182890A438281704721B1828942F001
:101BC0000202828104E082894FF6FD731A4082810D
:101BD0007047028A4FF6DF731A400282028A0A4374
:101BE0000282704721B1028A42F48042028204E0FC
:101BF000028A4BF6FF731A4002827047C1F3080253
:101C00008280704701468888C0F308007047818948
:101C100041F0010181817047028BD2B20283028BB5
:101C200042EA012202837047028B02F47F42028360
:101C3000028B0A430283704721B1828A42F020025C
:101C4000828204E0828A4FF6DF731A4082827047F4
:101C500021B1828A42F01002828204E0828A4FF629
:101C6000EF731A408282704721B1828A42F00802E3
:101C7000828204E0828A4FF6F7731A4082827047AC
:101C800021B1828942F40042828103E08289C2F359
:101C90000E028281704721B1828A42F40062828200
:101CA00004E0828A4FF2FF731A4082827047828A70
:101CB0004FF6FB731A408282828A0A4382827047FF
:101CC00021B1828A42F00202828204E0828A4FF6C7
:101CD000FD731A408282704702460020B1F5007FF2
:101CE00000D100BF13880B400BB1012000E00020A1
:101CF000704701F40072B2F5007F00D100BFCA4303
:101D00000280704770B502460024002300250020A1
:101D100040F66A16B14200D100BFC1F3421501F08E
:101D20001F03012606FA03F3012D02D196893340E1
:101D300006E0022D02D1168A334001E0968A334034
:101D40000C12012606FA04F41688344013B10CB1C3
:101D5000012000E0002070BD10B50022002340F6F5
:101D60006A14A14200D100BF0A1201249440A3B218
:101D7000DC43048010BD00000038014000440040F6
:101D800000480040004C00400050004031490143F1
:101D9000314A1160704770B5002100230F22C478CA
:101DA00004B32D4C246804F4E064C4F5E064210A13
:101DB000C1F10403CA40447804FA03F18478144062
:101DC00021430901254C0678A155047804F01F052C
:101DD0000124AC4005786D11AD0005F1E025C5F892
:101DE000004109E0047804F01F050124AC401C4DBB
:101DF0000678761145F8264070BD1A4A0A4002431B
:101E0000154B1B1F1A60704739B1134A121D126817
:101E10000243114B1B1D1A6006E00F4A121D126887
:101E200082430D4B1B1D1A607047042808D14FF0E8
:101E3000E021096941F004014FF0E022116107E05F
:101E40004FF0E021096921F004014FF0E022116117
:101E5000704700000000FA050CED00E000E400E02F
:101E600080E100E080FFFF1F704700000FB40449CD
:101E700010B503AA029800F0D3FB10BC5DF814FB68
:101E80004400002070B50C460546012A05D028788C
:101E9000800600D5EA69002302E0012305E05B1C0F
:101EA000934202D2E05C0028F9D1A869E618C01A72
:101EB000A861286A184428622846AFF3008004E02D
:101EC000D5E9012114F8010B9047B442F8D3284614
:101ED000AFF3008070BD00002DE9F04106460024FC
:101EE00010687529314616A510D0AFF30080002880
:101EF00002DA404213A507E031688A0701D512A52E
:101F000002E0490704D511A5012401E0AFF30080E8
:101F100000210A2206F1240709E0B0FBF2FCB0FB25
:101F2000F2F302FB1C00303078541846491C00289C
:101F3000F3D123462A463046BDE8F04100F0F3B81D
:101F4000000000002D0000002B0000002000000019
:101F500070B504460D4621461068AFF30080218815
:101F6000090502D50F4A7A4402E00E4A7A440E323D
:101F7000002104F1240305E000F00F060009965D3E
:101F80005E54491C0028F7D120780023000704D5AF
:101F9000702D02D009B1022311322046BDE87040F5
:101FA00000F0C1B8AB2A00002DE9F0474FF0000A5D
:101FB00089460446C0F820A02046E16888470028EA
:101FC00076D0252806D0D4E901219047206A401C0C
:101FD0002062F1E7E168204600268847C4F81CA08B
:101FE00005460027C4F818A02A2D09D0284601F07C
:101FF000F7F838B304EB8708303DC8F8185019E0FB
:1020000059F8041B204604EB87029161E168884778
:10201000012F054618D1E069002820DA26F02006B5
:102020001DE0D8F8180000EB800005EB40003038C8
:10203000C8F818002046E1688847054601F0D0F846
:102040000028EED1012F0AD02E2D08D12046E168BC
:1020500088477F1C0546022F46F02006C4DBA06996
:10206000002803DA404246F00106A061F00701D0E3
:1020700026F010066C2D0AD0682D08D04C2D39D0D2
:102080006A2D35D0742D35D07A2D33D016E0E16825
:102090002F4620468847B84205460AD16C2F27D0E4
:1020A0004FF48060E168064320468847054605E016
:1020B00027E06C2F1AD04FF4807006430DB3A5F1C2
:1020C0004100192802D8203546F400664A462946C0
:1020D000204626604E46FEF765F880B101280BD0F9
:1020E000F61D26F0070000F1080965E74020E4E747
:1020F0008020D7E70020D5E706F104095CE72846F1
:1021000061E7206ABDE8F087704770477047704705
:1021100010B500F09BFA006810BD10B5044600F041
:1021200095FA046010BD2DE9F0470D469946924698
:10213000044600F124080168880604D5E06921F00E
:102140001001216000E00120A84201DD471B00E0F2
:102150000027A1697A1902EB0900081AA06120780A
:10216000C00602D42046AFF30080002608E0D4E980
:1021700001211AF806009047206A401C761C206254
:102180004E45F4DB2078C0060AD52046AFF3008028
:1021900006E0D4E9012130209047206A401C2062EB
:1021A000381EA7F10107F4DC07E0D4E9012118F893
:1021B00005009047206A401C2062281EA5F10105F9
:1021C000F3DC2046AFF300802078000602D5022021
:1021D000BDE8F0870120FBE770472DE9FF4F0C4673
:1021E0001E464FF0FF378BB0D2E90001DDF860806A
:1021F0000A908A46C1F30A5505B93D4600210846B2
:102200004FF00000BAF1000F00F4400005DA00EBD7
:1022100080004FF4400101EA50004FEA9059B9F1B3
:10222000010F00DDB9460A9850EA4A000ED044F684
:102230001050A5F2FF3545432F14B8F1000F1ED002
:102240007542291E1EDDC9F100021CE0B8F1010F24
:102250004FF0000001D0302103E0F24305E02154AB
:10226000401CB042FBDB30460022002121540B9978
:10227000C1F80880C1E900200FB0BDE8F08FBD1B98
:102280006D1CDEE74A4600DA694206A800F080FAD3
:1022900006AB93E8070003AB83E8070050460A99B2
:1022A00000F05AFB8DE80700A0F500501F380090A1
:1022B0000398002D09DD42F21F014A46084403A994
:1022C0000390684600F0B9FD08E0A0F500504A46CA
:1022D0001F3803A90390684600F0C3FD8DE807008E
:1022E0000004000C03D04FF0FF30410800E010461E
:1022F000B8F1000F03D00022009215461EE0751EB3
:1023000005D400F0A7F9303262556D1EF9D5B346F9
:102310000122084302D000227F1C04E020783028EC
:1023200001D100227F1E002A099786D01DE0112DC1
:1023300007DA00F08FF9303262556D1C50EA010265
:10234000F5D1084302D00098C8B10EE00021681E04
:1023500005E0235C625C63542254401E491C8142A8
:10236000F7DBAB46A81B401E0990002004F80B00C9
:102370000B98099AC0F80880C0E9002B7CE7112669
:102380004FF0000859E72DE9F04F88460446D21D6A
:1023900022F0070191B0D1E90001CDE90A0100F076
:1023A00096FE02460B98C00F01D02D2007E0206852
:1023B000810701D52B2002E0202101EAC000032A79
:1023C000099001D0072A05DB03464146204600F06C
:1023D0009FF90BE12078800601D5E06900E0062036
:1023E000B8F1650F814606D0B8F1660F18D0B8F184
:1023F000670F70D131E00020B9F1110F009001DBBF
:10240000112301E009F101030AAA01A90CA8FFF7B1
:10241000E4FEDDE90C70002609F10105834647E082
:1024200001204B4600904FF000470AAA01A90CA8D2
:10243000FFF7D3FEDDE90DB00C995D46002610B91B
:1024400009F101000D18B9EB050003D4C0F1FF3606
:1024500009F10105A5EB09002BE0B9F1010F01DA43
:102460004FF001090020B9F1110F0090484601DD3D
:10247000112300E003460AAA01A90CA8FFF7ADFE4C
:10248000DDE90C704D4600268346207800070AD40B
:10249000AB4500DA5D4601A8012D04DD411911F8B4
:1024A000011C302907D04F4502DA17F1040F04DA76
:1024B000012082460FE06D1EEEE7002F02DCED1BCF
:1024C0003E4403E0781CA84200DD7D1CB81B00F1EF
:1024D000010A4FF000472078000703D4AA4501DB2A
:1024E0004FF0FF3A0021B7F1004F0DF143088DF88E
:1024F000431024D002202B23002F01DA7F422D230A
:102500000A21021EA0F1010000DC5FB197FBF1FC83
:1025100097FBF1F201FB1C7C17460CF1300C08F81C
:1025200001CDEEE7A8F1010003702188090501D56E
:10253000452100E06521A0F1010800F8011C09987F
:102540000FA9A1EB0807FF1D00B10120411901EB04
:10255000EA70A1693844081A401EA0612078C006BC
:1025600002D42046AFF30080099828B1D4E90121B4
:102570009047206A401C20622078C00622D5204661
:10258000AFF300801EE0002E04DBB34502DD01A89E
:10259000805D00E03020D4E901219047206A401C92
:1025A0002062761CAAF101005FEA000A0AD100F05D
:1025B00049F8C0680168405CD4E901219047206A6D
:1025C000401C2062281EA5F10105DCDC07E0D4E9EF
:1025D000012118F8010B9047206A401C2062381E28
:1025E000A7F10107F3DC2046AFF30080032011B010
:1025F00043E610B5436913B1AFF3008001E0FFF784
:1026000041FC012010BD127800F124010A70002263
:102610004A700122EDE711684FF0FF32E9E7000050
:10262000074B70B50D467B4400F05FF80446284622
:1026300000F01CF910B14FF0FF3070BD204670BDA6
:10264000DDEAFFFF0048704748010020004870475E
:102650002801002030B5B0F10A024FEA900E71F166
:1026600000034EEA817EB0EB0E0061EB91014FEA70
:10267000101E4EEA017E10EB0E0041EB11114FEAE5
:10268000102E4EEA016E10EB0E0041EB11214FEAC5
:10269000104E4EEA014E10EB0E0041EB1141401876
:1026A00041F100014FEAD00040EA41704FEAD10108
:1026B00010EB80054FEA810444EA907444EB010476
:1026C0006D1944EB0404521BA3414FF0000348BFB3
:1026D0000A3200D530BD401C41F1000130BD000080
:1026E00001694A1C02610878704700B58FB0CDE9D6
:1026F00001310021059105497944CDE903101146C6
:102700006846FFF751FC0FB000BD0000E5FFFFFF7A
:102710002DE9F0411F46044603260168072A01F40B
:10272000006004DB08B116A505E016A503E008B1BA
:1027300015A500E015A521F010002060A069C01EBD
:10274000A0610FB1401EA0612046AFF300804FB1E1
:10275000D4E9012138469047206A401C2062C01C01
:10276000206206E0206AFAE7D4E9012115F8010B9E
:102770009047761EF8D22046AFF30080BDE8F08186
:102780004E414E006E616E00494E4600696E660015
:102790002DE9F047814616468AB0334878440DC883
:1027A0008DE80D0030487844801C03AC0DC884E8E7
:1027B0000D0041F69B300844372190FBF1F290FB6D
:1027C000F1F5A5F1800501FB12041B3C02D5644222
:1027D000012000E00020DFF890A080460027FA44A6
:1027E000AAF1BE0A0DE0E00709D03246684607EBC1
:1027F00047010AEB810100F034FB8DE8070064100B
:102800007F1C002CEFD1184F7F44AC3F18E0E80745
:1028100014D007EB04100DF1180A90E80E008AE8B6
:102820000E00C068F04201D198190890324606A9FE
:1028300003A800F016FB03AB83E807006D10641CCF
:10284000002DE4D132466946B8F1000F03A802D04A
:1028500000F0F3FA01E000F004FBC9E90001C9F857
:1028600008200AB0BDE8F087AC230000007B00F030
:102870008000704700487047280100207546FFF728
:10288000F9FFAE4605006946534620F0070085462D
:1028900018B020B5FEF7E4FCBDE820404FF000067C
:1028A0004FF000074FF000084FF0000B21F0070138
:1028B000AC46ACE8C009ACE8C009ACE8C009ACE87B
:1028C000C0098D46704710B50446AFF3008020461E
:1028D000BDE81040FDF789BC4FF0013C50F8042BD7
:1028E00051F8043B9A4221D1A2EB0C03934313EA23
:1028F000CC1317D150F8042B51F8043B9A4215D150
:10290000A2EB0C03934313EACC130BD150F8042B26
:1029100051F8043B9A4209D1A2EB0C03934313EA0A
:10292000CC13DBD04FF00000704700BFD01A01BAC3
:10293000B1FA81F101F0180122FA01F0CB40C1F1A6
:102940002001DBB2C0B2C01A2CFA01F3D11A9143B4
:1029500011EAC311E6D170475FEA400C08BF91F05D
:10296000000F4FEA8C234FEAC12243EA51514FEA4C
:102970001C5018BF00F5F0404FEA300018BF41F07E
:1029800000415FEA6C5C00F02980BCF1FF3F08BFAA
:1029900040F080407047130C06BF12044FF0100C3B
:1029A0004FF0000C130E04BF12020CF1080C130FB1
:1029B00004BF12010CF1040C930F04BF92000CF140
:1029C000020CD30F04BF52000CF1010C11464FF062
:1029D0000002A0F11F00A0EB0C00704711F0004FA7
:1029E00008BF704731F000413FF4D5AF0B0C06BF74
:1029F00009044FF0100C4FF0000C0B0E04BF09023D
:102A00000CF1080C0B0F04BF09010CF1040C8B0F27
:102A100004BF89000CF1020CCB0F04BF49000CF17C
:102A2000010CCCF12003A0EB0C0022FA03F302FA14
:102A30000CF241EA030100F10100704720F07F4CE5
:102A400080EA030023F07F47ACEB070303F57C53D8
:102A500000F0004003F1FF032DE980494FEA154BD8
:102A600009B44FEA144325EA0B4E24EA03480FF257
:102A7000042606EB132749083E785FEA320203FB7F
:102A80000667C7F5000707FB06F64FEA54374FEA1B
:102A9000D64606F1020607FB066CCCF1005C4FEA55
:102AA0001C472CEA074C07FB06F40CFB06F504EB6D
:102AB00015464FEA961634BF00204FF000404FEA0B
:102AC000D13706FB07FC4FEA1C4C0CFB0BF7D21B63
:102AD00003FB0CF761EB07010CFB0EF7B0EB0740B3
:102AE00072EB17420CFB08F734BFA2EB0742B2EBC4
:102AF000074261EB17414FEA0C444FEA910706FB8E
:102B000007FC4FEA1C4C0CFB0BF7B0EBC74072EB19
:102B1000573203FB0CF734BFA2EBC742B2EBC742FC
:102B200061EB57310CFB0EF7B0EBC70072EB57723D
:102B30000CFB08F734BFA2EBC702B2EBC70261EB94
:102B40005771039F4FEA816141EA921104EBCC0473
:102B50004FEAD1374FEA826206FB07FC42EA901245
:102B60004FEA80604FEA1C4C0CFB0BF7D21B03FBB7
:102B70000CF761EB07010CFB0EF7B0EB074072EBB3
:102B800017420CFB08F734BFA2EB0742B2EB074237
:102B900061EB17414FEA8C554FEA910704EB9C24F7
:102BA00006FB07FC4FEA1C4C0CFB0BF7B0EBC740D5
:102BB00072EB573203FB0CF734BFA2EBC742B2EB08
:102BC000C74261EB57310CFB0EF7B0EBC70072EB5D
:102BD00057720CFB08F734BFA2EBC702B2EBC70277
:102BE00061EB577115EB4C254FEA816141EA921177
:102BF0004FEA82624FEAD13742EA901206FB07FCA5
:102C000044F100044FEA80604FEA1C4C0CFB0BF7C8
:102C1000D21B03FB0CF761EB07010CFB0EF7B0EBCB
:102C2000074072EB17420CFB08F734BFA2EB0742D8
:102C3000B2EB074261EB174115EB1C154FEA8131EE
:102C400041EA92414FEA823242EA90424FEA8030B2
:102C50004FEA0C7644F1000448EA03434EEA0B487D
:102C60004FF0000EB2EB080C71EB030724BF624675
:102C700039464EEB0E0E4FF0000B00185241494101
:102C80004BEB0B0BB2EB080C71EB03077BF1000B6A
:102C900024BF624639464EEB0E0E4FF0000B001873
:102CA000524149414BEB0B0BB2EB080C71EB0307A4
:102CB0007BF1000B24BF624639464EEB0E0E51EA03
:102CC000020718BF46F0010616EB0E7655F100021A
:102CD00054F1000103D5BDE88901BDE80088BDE8D5
:102CE0008901BDE80048B619524141EB0101A3F149
:102CF0000103704780807F7E7D7C7B7A7978777650
:102D000076757473727171706F6E6E6D6C6C6B6AC8
:102D10006A69686867666665646463636261616066
:102D2000605F5F5E5E5D5D5C5C5B5B5A5A595958E3
:102D3000585757565655555554545353525252514D
:102D4000515050504F4F4F4E4E4D4D4D4C4C4C4BA3
:102D50004B4B4A4A4A4949494848484747474746EA
:102D60004646454545444444444343434342424226
:102D700042414141002B26D4770021D01CB54FEAB7
:102D8000370703B44FF010004FF010014FF0000070
:102D90000FBCBDE810400BF1010BBBF1010F08BFE8
:102DA0005FEA170722BF12F1010211F101014FF092
:102DB000004143F1000300F0004043EA0000704787
:102DC000F9D35708DAE746EA064613F1400F4FEA0F
:102DD00016461FDD13F1200FDFBF16430A46002100
:102DE00020335B42C8D0C3F1200746EA064602FA08
:102DF00007F74FEA164646EA0706C3F1200722FA0C
:102E000003F201FA07F721FA03F14FF0000342EA57
:102E10000702B1E746EA020646EA06464FEA1646C8
:102E200046EA0106BCBF46EA0646360C4FF00003F0
:102E30004FF000024FF000019EE72DE9C048934695
:102E400030B491E8380007C831EA400C48BF34EA92
:102E5000430C03D5FFF7F2FDFFF78CFFF0BCBDE894
:102E600000882DE9C048934630B491E8380007C87F
:102E700010F0804F08BF13F0804F03D100F005F829
:102E8000FFF778FFF0BCBDE8008820F07F4780EABC
:102E9000030023F07F4C07EB0C03A3F57C5300F0F9
:102EA0000040A3F1FE0392F0000F00F0B38095F014
:102EB000000F00F077802DE901494FEA11404FEAF9
:102EC000144621EA004800FB06FC24EA064708FBFA
:102ED00006F607FB08F800FB07F718EB06484CEB73
:102EE000164C4FEA124B18EB07484FEA15464CEBCD
:102EF000174022EA0B4E0BFB06FC25EA06470EFBA9
:102F000006F607FB0EFE0BFB07F71EEB064E4CEB1F
:102F1000164C4FF000061EEB074E4CEB174B18EB10
:102F20000B0840F1000018EB0E0B58EB000840F1C5
:102F300000008F1A4FF000013CBFC943661B14BF4D
:102F4000B5EB040C00213CBFC943F61B4FEA174404
:102F50004EEA8E0E27EA04454FEA1C4704FB07623F
:102F60002CEA074C05FB07F70CFB05F604FB0CFCF1
:102F700016EB074642EB174216EB0C4642EB1C429F
:102F80001BEB060658EB0202414146EA9E0601D5BC
:102F9000BDE80189B619524141EB0101A3F10103DA
:102FA000BDE801894FEA14454FEA114724EA054676
:102FB00021EA074C05FB07F406FB07F70CFB06F1BB
:102FC00005FB0CFC11EB074144EB17444FEA124799
:102FD00011EB0C4144EB1C4422EA074C05FB07F2C1
:102FE00006FB07F70CFB06F605FB0CFC16EB074689
:102FF00042EB174216EB0C4642EB1C456A1854F1A3
:10300000000148BF7047B619524141EB0101A3F1DD
:103010000103704795F0000F37D04FEA11424FEA95
:10302000144721EA024624EA074C02FB07F106FB9B
:1030300007F70CFB06F402FB0CFC14EB074441EB16
:1030400017414FEA154714EB0C4441EB1C4125EAAC
:10305000074C02FB07F506FB07F70CFB06F602FB25
:103060000CFC16EB074645EB174516EB0C4645EBFB
:103070001C42121951F1000148BF7047B619524164
:1030800041EB0101A3F1010370474FEA14454FEAF8
:10309000114724EA054621EA074C05FB07F106FB28
:1030A00007F70CFB06F24FF0000605FB0CFC12EBD9
:1030B000074241EB174112EB0C4251EB1C4148BF58
:1030C0007047921841EB0101A3F1010370474900D9
:1030D00050EAC12018BF04204A0D18BF40F001007B
:1030E00040F2FF72B2EB515F08BF40F002000128CE
:1030F00008BF052070472DE9F0414F1E00EBC701C6
:103100000446D1E9000115461E4637F006020DD0EF
:103110002A46334601F05CF87F1E04EBC703D3E96F
:10312000002300F0BFFD37F00602F1D1022F25D0B9
:10313000042F13D0062F18BFBDE8F0812A4633466E
:1031400001F046F8D4E90A2300F0ACFD2A463346E4
:1031500001F03EF8D4E9082300F0A4FD2A463346E6
:1031600001F036F8D4E9062300F09CFD2A463346E8
:1031700001F02EF8D4E9042300F094FD2A463346EA
:1031800001F026F8D4E9022300F08CFD2A463346EC
:1031900001F01EF8D4E90023BDE8F04100F082BD43
:1031A000002213461046014900F038BE0000F03FEF
:1031B00000F078BD002213461046114600F02EBEE6
:1031C00040F2013200204FF0E04101F0D4BB00009A
:1031D000024A0020110701F0CEBB000001FDFFFFF5
:1031E00030380A2801D201207047002070470000C3
:1031F0002DE9F04D1D460C4698B0174621F00041D0
:1032000023F00043002814BF4FF0010C4FF0000CD6
:103210000CEB440CFE4A0CEB02064FEA620C6645CE
:103220002BD33E0018BF012606EB45061644F94A8B
:10323000964222D3F84A53EA070C02D0944205D1B1
:1032400048B918B000201146BDE8F08D002808BF2D
:103250004FF0000C01D04FF0010C0CEB440212F5C2
:10326000001F0AD8002F14BF4FF0010C4FF0000CC4
:103270000CEB450212F5001F07D918B03A462B4651
:103280002146BDE8F04DFFF793BF0022DFF88CA385
:10329000002CB8BF534526DADFF884C36345A8BFC6
:1032A000022220DADFF870C39C451CDCDFF874C30F
:1032B0000CEB235CBCF1140F08DDCCF1340627FACB
:1032C00006FC0CFA06F6BE420DD108E05FB9CCF15F
:1032D000140623FA06FC0CFA06F69E4203D10CF003
:1032E0000102C2F1020251EA000C19D1002D17DAD5
:1032F000002C18BF022A01D0012A07D00220FEF7B5
:103300000CFF18B0BDE8F04DFFF74ABF0220FEF7F2
:1033100004FFFFF745FF18B081F00041BDE8F08DD4
:10332000B7F1000C6CD1534525D104F1804212F560
:10333000801201BF00280020B74918B008BFBDE8BF
:10334000F08DB548884207DC002DA1BF60462946B4
:1033500018B0BDE8F08D07E0281E05DA80F00041C6
:1033600018B06046BDE8F08DAF497944D1E900015D
:1033700018B0BDE8F08DDFF8A0C2634525D1002D5F
:103380001FDA19B1514512D1D8B909E0002840F02F
:10339000EC82A24A214618B062F31E01BDE8F08D0E
:1033A0000020214618B060F31E01BDE8F08D08DA58
:1033B00018B02346BDE8F04D02460020614600F0FB
:1033C0002DBD18B02146BDE8F08D514518DAB5F194
:1033D000804F0DD0A5F1005CBCF1FF5C10D1B4F1C1
:1033E000000C0DDB18B06146BDE8F04D00F0ECBB01
:1033F000234618B00246BDE8F04D194600F0E8BE7D
:10340000060024F0004C3BD1D9B1514533D1002CFA
:1034100006DD002DA1BF0020514618B0BDE8F08D9B
:10342000002C01DD002D1BDB002C13DA002D11DB3D
:10343000012A4FF0000014BF78497C4918B0BDE85C
:10344000F08D022A18BF002C0AD0012A08D1002CC6
:1034500006DA0AE0002CB8BF002D11DA012A04D0E8
:10346000002018B00146BDE8F08D18B000204FF0E4
:103470000041BDE8F08DA1F14050B0F17F601AD05D
:10348000012000EBE47050EA020421D0624C521E8D
:103490004FF0000B104304BF4FF0000B644C654825
:1034A00083427CDD644A654893421FDD884217DB16
:1034B000002D25DB37E0002C00DA4AB1022A0CBFD0
:1034C00001204FF0FF3018B0BDE8F04D00F02DBEE8
:1034D0000120FEF722FE18B0BDE8F04DFFF76ABEEE
:1034E0004D4A8A4202DC002D0ADC1CE0814202DAED
:1034F000002D18DA04E0484B994220DD002D12DD42
:103500000220FEF70AFEFFF75BFE05460E4600228C
:1035100053465846214600F05BFE18B066F31E0184
:103520002846BDE8F08D0220FEF7F7FDFFF750FEBC
:103530000A46214618B062F31E01BDE8F08D002254
:103540003046614601F06AF880460E466FF001028F
:1035500001F011FA4FF05532394B00F06DFF424641
:10356000334600F035FE0022364B00F065FF824600
:103570004246334604911046194600F029FE524651
:10358000049B00F025FE8A4600904FF0C0422E4B6F
:103590004046314600F01CFE2C4A2B4B00E027E051
:1035A000CDE906015146009800F012FE82460191D5
:1035B000274A284B4046314600F00AFE5246019BFE
:1035C00001F02CF882460B4602460591DDE9060122
:1035D00000F068FBDDE9062300268846304601F04E
:1035E0001DF85246059B00F027FF024600F07EB909
:1035F0000020B1F5801F07DA35223046614601F020
:10360000BAF906466FF0340000EB215024E00000C8
:10361000FFFF1F00FFFF0F000000F03F0000F07FE2
:103620000000404301FCFFFF5A1700000000F0FFBC
:103630000000F0BF0000E0410000F043FFFFEF3F5B
:103640005555D53F0000E03F4715F73FFE822B65FB
:1036500044DF5DF80BAE543EA0F2FF300190C1F3A1
:10366000130040F07F6141F040510291FE498842D1
:10367000D8BF002004DDFD498142C8BF012001DD23
:103680000D9008E000200D900198401C01900298D8
:10369000A0F5801002900299F54878440B910D999D
:1036A00000EBC100D0E900230F9330460A920B993A
:1036B00000F0B4FFCDE90601DDE90A2130460F9B99
:1036C00000F0F0FA02460B460020EA4900F0A6FBA3
:1036D000059102460B460090DDE9060100F078FDF9
:1036E0001490E5488A464FF0000878440299006833
:1036F00012904FF0005040EA61010D980F9B01EBD2
:10370000804000F5002109910A9A129800F086FF86
:1037100032460B9B00F090FE4246534600F058FDA7
:103720000646029140465146099B129A00F050FD10
:10373000DDE9062300F080FE3246029B00F06EFFBA
:10374000059B009A00F044FD0091149A04905346A2
:103750001046194600F03CFD06460246C7480B4697
:10376000029106217844FFF7C6FCCDE90510029BC3
:1037700032461046194600F02BFDDDE9053200F017
:1037800027FD05910646534640461946149A00F017
:1037900089FA009B049A00F01BFD3246059B00F05D
:1037A00081FACDE90510424653461046194600F00D
:1037B0000FFD0022B24B02910A9000F073FADDE98E
:1037C000053200F06FFA0E464246AD4B404600F01F
:1037D00025FF029B0A9A00F021FFDDE9053200F087
:1037E0002BFE424602910A9033461046514600F0A5
:1037F000EFFCCDE906015346149A02990A9800F0AD
:10380000E7FC8A460290334642460099049800F04D
:10381000DFFC5346029A00F045FA82460B46024608
:103820000591DDE9060100F03DFADDE906230020FF
:103830008846064600F0F2FE5246059B00F0FCFD6D
:10384000824609914FF060428E4B3046414600F06F
:10385000BFFC049006918C4A8A4B5046099900F0AF
:10386000B7FC82460291894A894B3046414600F0B6
:10387000AFFC5246029B00F015FA864B7B440D9A32
:1038800003EBC203D3E9002300F00CFA0E9007917A
:10389000019800F04AFC0591DDE9061382460E9A74
:1038A000049800F0FFF97C4A7A440D9B02EBC303B5
:1038B000D3E900230093029200F0F4F95246059BED
:1038C00000F0F0F90026884652463046059B00F08D
:1038D000A5FE009B029A00F0A1FE069B049A00F050
:1038E0009DFE079B0E9A00F0A7FD024600200B46A6
:1038F00002903846294600F06BFC824601912B4627
:1039000038461946029A00F089FE3246434600F0D6
:103910005FFC5246019B00F0C5F907468A463246D5
:1039200043462946029800F053FC05460E463A46A7
:10393000534600F0B7F9594A8846914221DBA8EB7B
:10394000020353EA000210D12A46334600F066FE15
:10395000CDE90401524A534B3846514600F0A2F9D2
:10396000DDE9042300F032FD21D20220FEF7D5FB71
:10397000FFF726FC0A46214618B062F31E01BDE897
:10398000F08D494B28F000429A4210D3474A08EB89
:10399000020353EA00027FF4C6AD2A46334600F024
:1039A0003DFE3A46534600F011FD7FF6BCAD0022C5
:1039B000019228F000403E493E4A01EB20518242EC
:1039C00023DA481C4FF4801121FA00F040443A4AAF
:1039D000C0F30A517A44394BA1F2FF31CB4020EABF
:1039E0000303C0F3130040F48010C1F11401C84078
:1039F00012680190B8F1000FBCBF40420190284608
:103A0000314600F00BFE05460E462A463346384640
:103A1000514600F047F94FF000084246284B404617
:103A2000059100F0D5FBCDE90601264A264B40461C
:103A3000059900F0CDFB009102902A46334640469E
:103A4000059900F0EBFD3A46534600F0F5FC1F4A9D
:103A50001F4B00F0BDFB009B029A00F023F90746C4
:103A6000884602460B4635E08E9803007AB60B0076
:103A7000A21300000000F03FDA130000081300005A
:103A80000000084009C7EE3FFD033ADCF5015B1476
:103A9000E02F3EBEE0110000A411000000009040A5
:103AA000FE822B654715973C00CC904000346F3F59
:103AB00001FCFFFF0000E03FF0100000FFFF0F00DF
:103AC000432EE63F396CA80C615C20BEEF39FAFE4C
:103AD000422EE63FDDE9060100F0E4F8DDE90623C9
:103AE00005460E4600F09AFD3A46434600F0A4FC17
:103AF0000F462A46334600901046194600F068FBF0
:103B0000824602462E4888460B4605217844FFF738
:103B1000F2FA5246434600F05BFB2A46334600F079
:103B20008BFC80468A463B4628463146009A00F088
:103B30004FFB3B46009A00F0B5F80691009000223A
:103B40004FF080434046514600F068FD0F460C9010
:103B5000424653462846314600F03AFB3B460C9A13
:103B600000F05CF9069B009A00F058FD2A463346A7
:103B700000F054FD0022134B00F05EFC0546019856
:103B80000E4601EB00510815002810DC284631468E
:103B9000019A00F0F0FEFFF79AFA042808BFFFF739
:103BA00017FB28463146019A00F0E5FE05460B4614
:103BB00018B02A4658462146BDE8F04D00F008BB33
:103BC000900F00000000F03F2DE9F04106460F463F
:103BD00000F03EFC041E0D4618BF0120284320F0D3
:103BE0000040C0F17F6000F1E040C00F0ED0301CFB
:103BF00018BF0120384320F00040C0F17F6000F181
:103C0000E040C00F04BF0120FEF787FA2046294696
:103C1000BDE8F08110B500290AD00878002807D047
:103C200005487844FEF758FE002801D0002010BD5A
:103C30000248784410BD0000620F00005A0F0000D7
:103C400021F00042A2F16052B2F5801F01F0004362
:103C500028BFD2F17F6C0BD95FEA001C43EAC20295
:103C600042EB507018BF704728BF20F0010070472A
:103C7000B2F5801FBCBF184670474FEA410C1CF5D7
:103C8000001F02D2084600F03DBE70B500F04AFBAE
:103C900000000089FFF7F6BF4FF00040A0F580005C
:103CA0007047000010B591EA030F48BF83F000434E
:103CB00000F1BC84841A71EB030C05D2121943EB9A
:103CC0000C03001B61EB0C01DFF824E14FEA1154F7
:103CD000A4EB135C1EEA430F18BF9EEA445F73D047
:103CE00023EA0E03DCF1200E21EA045143F4801391
:103CF00032D322FA0CFE10EB0E0023FA0CFE41EB3D
:103D00000E01CCF1200E03FA0EFE10EB0E0051F165
:103D10000001B1F5801FCCF1200E32D201EB04512D
:103D200012FA0EF2BDE8104058BF7047401C38BF71
:103D30005FEA420218BF7047002814BF20F001005C
:103D400041F100014FEA410313F5001F38BF7047EE
:103D5000A1F1C04100F034BB012A43EB0302ACF1F6
:103D6000200CDCF11F0E32BF4FF0000E23FA0CF3D3
:103D700010EB030041EB0451B4EB115FD0D0A1EB89
:103D8000045101F5801149085FEA300001EB04514C
:103D90000ED350F1000038BF12FA0EFE08D1BDE874
:103DA0001040C9E7401C38BF5FEA4202CAD1C3E7EE
:103DB000BDE810404FEA410313F5001F38BF7047BC
:103DC000A1F1C04100F0FCBA9EEA445F08D011EABC
:103DD0005E0FBDE8104004BF01F0004100207047B5
:103DE000BDE8104070B500F09DFA00BF64FBBE3E18
:103DF0000000E0FF02494FF0000000F08ABD00BF64
:103E00000000F87F491058BFC1F140415B1058BF16
:103E1000C3F140438B42EFF3008070472DE9C0416E
:103E200030B4DFF8A0C23CEA111418BF3CEA131406
:103E300000F0EC8081EA03051CEA111444EAD57411
:103E400018BF1CEA131500F0C780A4EB05044FF05F
:103E5000004545EAC12145EAC32341EA505143EAFE
:103E6000525304F17F74994204F500344FEAC020A4
:103E70004FEAC22208BF904200F09C804FEA1365CF
:103E80000FF24016765D4FEA134506FB05F7C7F1C2
:103E9000807706FB07F74FEAD737A7FB0368764220
:103EA000C8F58038A7FB06CE38BFA8F1010807FB8C
:103EB00008E64FF0000EA6FB028CE6FB03CEDCF119
:103EC000000CCEF1004E38BFAEF1010EA6FB0C582F
:103ED0004FF000074FF00005E6FB0E87A1FB08C678
:103EE000A0FB07CE16EB0E0645F10005E1FB0765CA
:103EF00015F1E04E7EBFA4F580345FEA46066D41C1
:103F000016F1800745F100054FEA17274FEA0666CC
:103F100047EA0567A6F1DE46B6F1805F4FEA152550
:103F20001FD9384624F0010C05EBC471BCF1FE6FBB
:103F300001EB0C1102D8F0BCBDE8008124425CBF4B
:103F400001F5801E9EEAC47F02D4F0BCBDE800816A
:103F5000244238D4F0BCA1F1C041BDE8004100F0DA
:103F60002FBA4FEAD22242EA43524FEAD323A7FBA9
:103F700002864FEAD02040EA415007FB03661EEA62
:103F80000E0F4FEAD12105FB026658BFA6EB005683
:103F9000B6EB00564FEA520E4EEAC37E18EB0E0EF9
:103FA00056EB530EBDD518EB02085E417F1C55F150
:103FB0000005B6E74FF480154FF000074FF00006FC
:103FC0004FF00008ADE7F0BC4FF0000001F1C04138
:103FD00001F00041BDE8008111EA0C1F0CEA131545
:103FE00000D00CE013EA0C1F00F025804FF0000019
:103FF000F0BC81EA030101F00041BDE80081F0BCA2
:10400000BDE8004181EA030100F0DAB9F0BCBDE887
:10401000004170B500F086F9097EFC3E00F007B85B
:1040200081EA03014FF0000001F00041704781EA8E
:10403000030100F0C5B9F0BCBDE800414FF000003D
:1040400021497047FFFDFBF9F7F5F4F2F0EEEDEBD7
:10405000E9E8E6E4E3E1E0DEDDDBDAD8D7D5D4D386
:10406000D1D0CFCDCCCBCAC8C7C6C5C4C2C1C0BFD2
:10407000BEBDBCBBBAB9B8B7B6B5B4B3B2B1B0AFD8
:10408000AEADACABAAA9A8A8A7A6A5A4A3A3A2A1BC
:10409000A09F9F9E9D9C9C9B9A9999989797969577
:1040A00095949393929191908F8F8E8E8D8C8C8B13
:1040B0008B8A89898888878786858584848383829B
:1040C000828181800000FF070000F87F4FEA4103F2
:1040D0004FEA5353A3F58063D3F11E03C8BFD3F156
:1040E000210C0CDD4FF0004242EAC12242EA50525C
:1040F00032FA03FC8CEAE17CACEBE1707047102BE8
:10410000C4BF0020704703F5787CBCF1FF3F04D0AA
:104110006FF0004282EA2100704770B500F002F9AA
:104120004992248000207047F2E710F0004248BF17
:104130004042B0FA80F310FA03F10AD0C3F11D0334
:1041400003F580634FEA415002EB035202EBD121A9
:1041500070474FF00000704751EA030C17D41CF56C
:10416000801F58BFBCF5801F00F10680994218BF20
:10417000704708BF9042704707D711F5801F58BF9E
:1041800013F5801F19D499427047894270471CF576
:10419000801F08D5BCF5801FF7D58B4218BF70472C
:1041A00008BF824270474FF4001C1CEB410F38BF20
:1041B0001CEB430F01D28B42704770B500F0B2F890
:1041C000922449004FF000514FF08053FFF71ABE80
:1041D000DFF848C170B51CEA111E1EBF1CEA13159A
:1041E0009EEA0C0F95EA0C0F00F06F8081EA030441
:1041F00023EA4C134EEAD47E21EA4C1141F480119B
:1042000043F48013AE44A1FB024CA0FB0365AEF166
:104210007F7E361955EB0C05A1FB034C4CF10003D6
:10422000A0FB021C16EB0C06654153F1000309428A
:1042300018BF46F0010613F4007F0BD14FEA03319B
:104240004FEA0530340341EA155140EA16506FF049
:1042500003020AE04FEAC3214FEAC520F40241EA13
:10426000555140EA56506FF0020202EB2E4201EB2C
:10427000025585EACE710AD05FEA440C18BF24F0DB
:10428000004450F1000041F1000120EAD47040F2F6
:10429000FE7C624500D270BDA84214BF4FF080443E
:1042A0004FF04044002E08BF0024BEF1806FA8BF2D
:1042B000A1F1C041BDE8704080F282804FF0000063
:1042C00001F1C04101F0004170479EEA0C0F0CEA79
:1042D000131518BF95EA0C0F06D04FF0000081EAC5
:1042E000030E0EF0004170BD00F01CF88900013E85
:1042F00000F007B800F009B84FEA430C5FEA5C5CD5
:1043000008D081EA030100F05BB84FEA410C5FEA94
:104310005C5CF6D14FF00000014970470000FF07D8
:104320000000F87F0EF1020E2EF0030E5EF8046B13
:10433000364205D4012A43EB030515F5001F12D8B8
:10434000012841EB010C1CF5001F0CD80ED14FEADF
:10435000D17C15F5001F0CEB4C0C0CF1020C08BFC6
:104360004CEBD37C04E04FF0080C01E04FEAD37C27
:104370000CEB4C0526FA05F606F00706B6F1040C20
:1043800006D20EEB860CBDE870404CF0010C604785
:10439000DFE80CF0090B02024FF000414FF0000083
:1043A000A1F5002170BD19461046012851EB01040A
:1043B00018BFD4F5001484BF002001F0004170BD87
:1043C0000808A0F500114FEA3101704753EA010CCB
:1043D00017D41CF5801F58BFBCF5801F00F1068064
:1043E0008B4218BF704708BF8242704707D713F54A
:1043F000801F58BF11F5801F19D48B4270479B4214
:1044000070471CF5801F08D5BCF5801FF7D5994271
:1044100018BF704708BF904270474FF4001C1CEB58
:10442000430F38BF1CEB410F01D2994270470FB4C4
:104430000CBC03BCFFF7C1BE91EA030F10B581F0BD
:1044400000413FF537AC83F0004300F0EFB80000C7
:104450002DE9F04101F5801CBCF5001FC0F2C380BE
:104460004FEA115C21EA0C510CF1FD0C41F4801172
:104470005FEA5C0C0CF5C07C01D3400049413DA4CF
:10448000890241EA905187028E0E0A0CA45D04FB5A
:1044900004F602FB06F6C6F14046A4FB0662F60DE2
:1044A00046EA422606FB06F4A4FB01235242C3F16E
:1044B000404338BF5B1EA6FB02420024E6FB0324F8
:1044C000D20B42EA4446A6FB0623A1FB02E2A3FB71
:1044D00007E4A4184FF0000252F10002E3FB01428E
:1044E0006442C2F1404E38BFAEF1010EA6FB042378
:1044F0004FF00002E6FB0E32A2FB03464FF0000431
:10450000B61954F10004E2FB0264A1FB06E6A4FB29
:1045100007E816EB08064FF0000858F10008E4FB26
:1045200001687642C8F1405838BFA8F10108A2FBE3
:1045300006E4A3FB08E52D194FF0000454F1000434
:10454000E2FB0854A1FB05E6A7FB04E818EB06080C
:104550004FF0000656F10006E1FB048618F1200535
:1045600056F10006A809A8F11B08B10908F03F0898
:10457000B8F10A0F40EA86601CD901EB0C51BDE886
:10458000F08100BFFCF5EEE8E2DDD8D3CFCBC7C3A6
:10459000C0BDB9B6B4B1AEACA9A7A5A3A19F9D9B60
:1045A0009A9896959392908F8D8C8B898887868523
:1045B00084838281A0FB006800FB01F208EB4208C3
:1045C000B8EB872807D5341858EB0104D5D5401C23
:1045D00051F10001D1E7341A78EB0104CDD4401E2B
:1045E00071F10001C9E75FEA4C0C5FEA9C5C0DD1F8
:1045F00005D34FF0000001F00041BDE8F081BDE8B7
:10460000F04170B5FFF78EFE6DDBFFBEBDE8F041F7
:104610004FF00000004970470000F87F10B591EAA4
:10462000030F48BF83F000433FF544AB841A71EB9E
:10463000030C07D212198CF0004C43EB0C03001B47
:1046400061EB0C01DFF8A4E14FEA1154A4EB135C19
:104650001EEA430F18BF9EEA445F00F0B08023EAD1
:104660006E03524221EA0451C3EB6E0338BF5B1E56
:10467000DCF1200E25D322FA0CFE10EB0E0043FADB
:104680000CFE41EB0E01CCF1200E03FA0EFE10EBF6
:104690000E0051F10001CCF1200E29D412FA0EF2D5
:1046A00001EB0451BDE8104058BF7047401C1CBFCF
:1046B000B2F1004F704700280CBF491C20F00100E8
:1046C000704712EB020E43EB030218BF4FF0010ECE
:1046D0004EEA4202ACF1200CDCF11E0E54D943FA32
:1046E0000CFE10EB0E0051F1FF31CCF11E0ED5D5B2
:1046F0000EF1010E12FA0EFE404141EB010101EBF9
:10470000445C5FEA5C5C10D910EBDE7001EB045195
:1047100038BFBEF1004FBDE8104018BF70470028F9
:104720000CBF491C20F00100704730D24FEAD42C56
:1047300011F5001124F400641BD0B1FA81F20B3A98
:10474000A41AA41ED2F12003914030FA03F31943B6
:10475000904001EBCC71002C01EB0451BDE81040FE
:10476000A8BF704701F1C0414FF0000001F00041C7
:104770007047B0FA80F310FA03F100D110BDE41ACB
:10478000173C4805C90AE4E701EB045110BD491084
:1047900001EB0451BDE810404FEA300002E04FF059
:1047A000000170474A0008BF0042F8D0B2F5001F70
:1047B00028BF704701F000414FF0000070479EEAAB
:1047C000445F07D011EA5E0FBDE8104004BF00212E
:1047D00000207047BDE8104070B5FFF7A3FD00BF93
:1047E00040DFF63E83F00041104670470000E0FFD6
:1047F00043004FEAD30C4FEA3C0C43401FBF400735
:104800000CF1605113F0FE4F70471CF0006F03D1A4
:1048100000200CF0004170470CF0004343EA507058
:1048200010B540EACC0000F027F800BF000000926D
:104830004FEA0001FFF7C4BD4FF000414FF0000008
:10484000A1F500217047000010F0004148BF404230
:10485000B0FA80F310FA03F2C3F19D030BD051EAD2
:10486000C35101EB1220530638BF704700F101001D
:1048700008BF20F0010070470EF1020E2EF0030E6B
:104880005EF8044B244204D44FEA4102B2F17F4F58
:1048900011D84FEA4003B3F17F4F0CD80ED14FEA45
:1048A000D07CB2F17F4F0CEB4C0C0CF1020C08BF2A
:1048B0004CEBD17C04E04FF0080C01E04FEAD17CD6
:1048C0000CEB4C0324FA03F404F00704B4F1040CD9
:1048D00006D20EEB840CBDE810404CF0010C604792
:1048E000DFE80CF0070802024FF00040A0F580005E
:1048F00010BD0846420018BFD2F1807288BF00F098
:10490000004010BDFF2141EAD050C0057047FDF7BF
:104910003ABD0CF00F03092B08BF082000F05980A6
:104920000A2B0BD0082B18BF704708BF1CF0400F94
:104930000AD04FF000004FF0000170471CF0400F0C
:1049400018BF4FF0004070471CF0100F08D020F047
:10495000704300F07F4242EAD3014FEA4370704750
:1049600000F0604021F07F4242EA000201F07F4007
:1049700040EA727070474FF0FF0C4CF4E06C1CEA98
:1049800011531CBF9CEA030C9445C2BFDA4201EBF1
:1049900002517047002B0DD0BCF1000F0FD0002A40
:1049A00001F00041A4BF41F0E04141F07F614FF0D0
:1049B0000000704701F000414FF00000704750EADE
:1049C00001334FF09B0C18BF4CF0806C7FF412AA9F
:1049D00070471CF4801F11D01CF4E02F03D06FEA45
:1049E000CC31490070474FF04050EFF3008222F085
:1049F000704242EA000282F3008870474FF00000E4
:104A000070477878786C7A6A7878782049494320BA
:104A10005445535400303132333435363738394108
:104A20004243444546403058003031323334353605
:104A30003738396162636465664030780000000091
:104A4000000000000000F03F000000000000F83F00
:104A500000000000000000000000004003B8E23F3A
:104A6000000000000000000006D0CF43EBFD4C3EEC
:104A7000033333333333E33FFFAB6FDBB66DDB3FE1
:104A80004D268F515555D53F01411DA96074D13F29
:104A900065DBC9934A86CD3FEF4E454A287ECA3F23
:104AA0003E5555555555C53F93BDBE166CC166BFA5
:104AB0002CDE25AF6A56113FF16BD2C541BDBBBE9E
:104AC000D0A4BE726937663E0000000000000000FE
:104AD00002400000000000A00000000005400000AF
:104AE000000000C8000000000C4000000000409CD6
:104AF00000000000194000000020BCBE00000000C3
:104B000034400000BFC91B8E00000004B540000007
:104B1000504BCFD06607E2CF010000006C4100008F
:104B20003E8251AADFEEA73401000000D942000006
:104B3000DCB5A0E23A301F97FFFFFFFFB44500004D
:104B4000FD25A0C8E9A3C14FFFFFFFFFFF3F000005
:104B50000000008000000000FF3F00000000008017
:104B600000000000A04B00080000002060000000D2
:104B70006C010008004C00086000002028070000BD
:104B8000880100081C00000043000000F8FFFFFF40
:104B90000C0000000E0000000F0000002E000000BE
:104BA0000000000000A24A04000000000000000015
:104BB00001020304060708090100000000000000CC
:104BC00000000000000000000000000000000000E5
:104BD00000000000000000000000000000000000D5
:104BE00000000000000000000000000000000102C2
:104BF0000304010203040607080902040608000072
:0400000508000131BD
:00000001FF
